:100000000C9461000C947E000C947E000C947E0095
:100010000C947E000C947E000C947E000C947E0068
:100020000C947E000C947E000C947E000C947E0058
:100030000C947E000C947E000C947E000C947E0048
:100040000C9404010C947E000C947E000C947E00B1
:100050000C947E000C947E000C947E000C947E0028
:100060000C947E000C947E00000000002400270009
:100070002A0000000000250028002B0000000000DE
:1000800023002600290004040404040404040202DA
:100090000202020203030303030301020408102007
:1000A0004080010204081020010204081020000012
:1000B0000007000201000003040600000000000029
:1000C000000011241FBECFEFD8E0DEBFCDBF11E08E
:1000D000A0E0B1E0ECE4F4E002C005900D92A6309F
:1000E000B107D9F711E0A6E0B1E001C01D92A1313E
:1000F000B107E1F70E94F5000C9424020C94000073
:10010000EF92FF920F931F937B018C01F8941AC01A
:100110008091010161E00E94D0018AE090E00E949C
:100120004C018091010160E00E94D0018AE090E0E2
:100130000E944C0186EE9FEFAFEFBFEFE80EF91E75
:100140000A1F1B1F1E141F04100611060CF37894BF
:100150001F910F91FF90EF900895609106017091AB
:100160000701882777FD8095982F0E94800080EBFB
:1001700094E00E944C01609106017091070188276C
:1001800077FD8095982F0E94800080EB94E00E947C
:100190004C016091060170910701882777FD8095D9
:1001A000982F0E94800080E797E10E944C010895FB
:1001B00080910001882319F080EB94E002C080EA6E
:1001C00091E090930701809306018091010161E025
:1001D0000E9491018091030161E00E949101809150
:1001E000030161E00E94D0010895CF93DF930E9444
:1001F00056010E94D800C0E0D0E00E94AD002097D8
:10020000E1F30E940000F9CF1F920F920FB60F92F8
:1002100011242F933F938F939F93AF93BF9380911C
:100220000C0190910D01A0910E01B0910F01309140
:1002300010010196A11DB11D232F2D5F2D3720F038
:100240002D570196A11DB11D2093100180930C0123
:1002500090930D01A0930E01B0930F0180910801BE
:1002600090910901A0910A01B0910B010196A11D85
:10027000B11D8093080190930901A0930A01B093E6
:100280000B01BF91AF919F918F913F912F910F9053
:100290000FBE0F901F901895019739F0880F991F86
:1002A000880F991F02970197F1F70895789484B504
:1002B000826084BD84B5816084BD85B5826085BD62
:1002C00085B5816085BDEEE6F0E080818160808348
:1002D000E1E8F0E01082808182608083808181602B
:1002E0008083E0E8F0E0808181608083E1EBF0E0F2
:1002F000808184608083E0EBF0E080818160808396
:10030000EAE7F0E08081846080838081826080837E
:100310008081816080838081806880831092C100A9
:100320000895CF93DF93482F50E0CA0186569F4F20
:10033000FC0134914A575F4FFA018491882369F197
:1003400090E0880F991FFC01E859FF4FA591B491E7
:10035000FC01EE58FF4FC591D491662351F42FB79D
:10036000F8948C91932F909589238C93888189237D
:100370000BC0623061F42FB7F8948C91932F909555
:1003800089238C938881832B88832FBF06C09FB7D6
:10039000F8948C91832B8C939FBFDF91CF9108951C
:1003A000482F50E0CA0182559F4FFC012491CA0199
:1003B00086569F4FFC0194914A575F4FFA01349142
:1003C000332309F440C0222351F1233071F024304B
:1003D00028F42130A1F0223011F514C02630B1F0FC
:1003E0002730C1F02430D9F404C0809180008F7789
:1003F00003C0809180008F7D8093800010C084B501
:100400008F7702C084B58F7D84BD09C08091B00014
:100410008F7703C08091B0008F7D8093B000E32F71
:10042000F0E0EE0FFF1FEE58FF4FA591B4912FB7EC
:10043000F894662321F48C919095892302C08C91C5
:0C044000892B8C932FBF0895F894FFCFF8
:06044C000103000D000099
:00000001FF
