:100000000C94CC020C94F4020C94F4020C94F402C0
:100010000C94F4020C94F4020C94F4020C94F40288
:100020000C94F4020C94F4020C94F4020C94F40278
:100030000C94F4020C9448100C94F4020C94F40206
:100040000C942F150C94F4020C9464070C94B607CE
:100050000C94F4020C94F4020C94F4020C94F40248
:100060000C94F4020C94F4026020000000000000E4
:100070000000000000000000000000000000000080
:100080000000000000000000000000000000000070
:100090000000000000000000000000000000000060
:1000A0000000000000000000000000000000000050
:1000B0000000000000000000000000000000000739
:1000C000F01FFFFFFFFFFFF00FF00007F030000010
:1000D000FE0000100FF0000FE0200001FC000020E7
:1000E0001FE0001FC0607E03FC0640603FC0001F91
:1000F000C0407E03F80FC0403FC0003F80808407AF
:10010000F818C0807F80003F8081880FF0118080C8
:10011000FF000000FF01180FE03101FF00000001A7
:10012000FE03101FE02301FE00000001FE03F03F6C
:10013000C07E03FE00000003FC00003FC00007FC7F
:1001400000000003FC00007F800007F800000007AB
:10015000F800007F80000FF8000003FFF01C07FF8D
:1001600001807FF0000007F0101403FE02C0400F72
:10017000E0000FE0302603FE0640401FE0000FE0E5
:10018000206203FC0440603FC0001FC0404201FCED
:100190000C60203F80001FC0C0C201F80820207FF3
:1001A00080003F80818301F8102020FF0000310093
:1001B000FF01FFFFF03FE0FE000000000000000034
:1001C000000000000000000000000000000000002F
:1001D000000000000000000000000000000000001F
:1001E0000000000000000000000052616E63682003
:1001F000526163696E670046696E69736865640081
:100200004C61702000546F74616C200042657374FF
:1002100020004C61737420004C61737452616365FB
:100220000046696E6973686564004C617020005413
:100230006F74616C20004265737420004C617374AC
:1002400020004C6173745261636500206F6620006A
:100250004C61702000546F74616C200042657374AF
:1002600020004C61737420004B61727420420020A6
:100270006F6620004C61702000546F74616C200028
:100280004265737420004C61737420004B6172747A
:10029000204100060820000000000000000040404F
:1002A000404040004000505050000000000000005E
:1002B00050F850F850002070A0702870200000C83E
:1002C000D0205898000020508040A89068004040FE
:1002D000400000000000102040404020100040205E
:1002E0001010102040001038100000000000002006
:1002F00020F8202000000000000000101000000086
:1003000000F80000000000000000001000000008DD
:100310001020408000007088A8A88870000020602D
:100320002020207000007088102040F80000F81095
:10033000201088700000909090F810100000F88055
:10034000F008887000007080F08888700000F8085D
:1003500010204080000070887088887000007088CD
:1003600088780870000000002000002000000000D5
:10037000200020204000001860806018000000006D
:1003800078007800000000C0300830C000006090A5
:10039000202000200000708898A8908870002050CD
:1003A00088F888880000F088F08888F0000070885D
:1003B000808088700000F088888888F00000F880CD
:1003C000F88080F80000F880F0808080000070885D
:1003D0008098887000008888F888888800007020DD
:1003E00020202070000038101010906000008890CD
:1003F000E0A0908800008080808080F8000088D88D
:10040000A8A8888800008888C8A8988800007088F4
:10041000888888700000F088F080808000007088F4
:1004200088A890680000F088F0A09088000078808C
:10043000700808F00000F8202020202000008888A4
:100440008888887000008888888850200000888804
:10045000A8A8A850000088502050888800008888EC
:10046000502020200000F808102040F80000E08014
:10047000808080E0000000804020100800003808E4
:1004800008080838000020500000000000000000AC
:1004900000000000F8008040000000000000006044
:1004A0001070906000008080E09090E000000000FC
:1004B00070808070000010107090907000000060DC
:1004C00090F0807000003040E0404040000000604C
:1004D0009070101060008080E090909000002000EC
:1004E000202020700000100030101010600080905C
:1004F000A0C0A0900000602020202070000000001C
:1005000050A8A8A800000000F0888888000000001B
:1005100060909060000000006090F080800000001B
:100520006090F01010000000B04840400000003023
:100530004020106000004040E040404000000000CB
:10054000909090600000000088885020000000001B
:1005500088A8A850000000885020508800000000A3
:100560009090604080000000F02040F000002040AB
:10057000408040402000202020202020200020100B
:1005800010081010200040A810000000000000001B
:10059000000000000000250911241FBECFEFD8E0A5
:1005A000DEBFCDBF11E0A0E0B1E0EAE0F2E302C0BF
:1005B00005900D92A032B107D9F712E0A0E2B1E0A8
:1005C00001C01D92A534B107E1F715E0C8E9D5E0F7
:1005D00004C02297FE010E94FF18C639D107C9F74F
:1005E0000E9454070C9403190C940000FB01DC01D9
:1005F00002C001900D9241505040D8F70895FB0180
:100600009F01E8944230C4F04532B4F44A3029F4F2
:1006100097FB1EF4909581959F4F642F77270E943A
:10062000E918805D8A330CF0895D8193CB010097D6
:10063000A1F716F45DE251931082C9010C942003D6
:10064000DC01FC01672F71917723E1F7329704C039
:100650007C916D9370836291AE17BF07C8F30895C4
:10066000EF92FF920F931F93DF93CF93CDB7DEB737
:1006700065970FB6F894DEBF0FBECDBF7B018C012E
:1006800020E63AEE40E050E00E94AC18DA01C901E1
:10069000BE016F5F7F4F4AE050E00E94FF02C80139
:1006A000B70128EE33E040E050E00E94AC18CA01E8
:1006B000B9012CE330E040E050E00E94AC18DC01CE
:1006C000CB01BE016B5F7F4F4AE050E00E94FF020A
:1006D000C801B70120E63AEE40E050E00E94AC18B5
:1006E00028EE33E040E050E00E94AC18DC01CB0182
:1006F000BE01675F7F4F4AE050E00E94FF028A819F
:100700009981882319F09D878E8703C080E38D87A8
:100710009E878AE38F878E819D81882319F0988B2D
:10072000898B03C080E3888B998B8AE38A8B8A85C7
:100730009985882319F09B8B8C8B03C080E38B8B6E
:100740009C8B1D8A20E030E0AE01435F5F4FF901D2
:10075000E05DFE4FDA01A20FB31F8C9180832F5F03
:100760003F4F2B30310599F765960FB6F894DEBFF1
:100770000FBECDBFCF91DF911F910F91FF90EF90F2
:1007800008955F926F927F928F929F92AF92BF92E5
:10079000CF92DF92EF92FF920F931F93CF93DF934D
:1007A000E8E6F0E0D490319654908D2C9924C40161
:1007B000877090702D2D269526952695892B19F0FA
:1007C000822F8F5F01C0822F90E0A52CBB2408945C
:1007D000A108B1088A9DE0018B9DD00D9A9DD00D96
:1007E00011240894A11CB11C2296FF24F3946624C2
:1007F0007724681A790A1EC080E291E00E94BC0A40
:1008000090E08819990962E070E00E94991880E2EE
:1008100091E040E028E630E08E01ED2CCF2C0E94E4
:10082000310BC60DD71D80E291E062E370E00E94BB
:10083000080BF394F51400F3FF241DC080E291E04F
:100840000E94BC0A90E08819990962E070E00E9459
:10085000991880E291E04F2D28E630E000E010E0AA
:10086000EE24CC240E94310B80E291E062E370E040
:100870000E94080BF39480E291E00E94C20A2F2D9F
:1008800030E090E08A199B0962E070E00E949918BC
:10089000261737079CF280E291E068E140E42AEEF7
:1008A00031E00E943C0E80E291E068EB7BE00E9428
:1008B000080B80E291E060E00E94680ADF91CF912E
:1008C0001F910F91FF90EF90DF90CF90BF90AF906E
:1008D0009F908F907F906F905F900895EF92FF921E
:1008E0000F931F9300E211E0C80160E00E94680AC4
:1008F000C80160E040E022E432E00E943C0EC80102
:1009000060E048E02CE332E00E943C0E609145013B
:100910007091460180914701909148010E943003F7
:1009200080E3E82E81E0F82EC80160E040E1970105
:100930000E947A0EC80160E048E126E332E00E949E
:100940003C0E609165017091660180916701909104
:1009500068010E943003C80160E040E297010E94F4
:100960007A0EC80160E048E22FE232E00E943C0EBD
:1009700060915501709156018091570190915801F5
:100980000E943003C80160E040E397010E947A0EA4
:10099000C80160E048E32AE232E00E943C0EC80150
:1009A00060E040E421E232E00E943C0EC8016CE3CA
:1009B00040E028E132E00E943C0EC8016CE348E0D0
:1009C00022E132E00E943C0E6091490170914A019F
:1009D00080914B0190914C010E943003C8016CE35F
:1009E00040E197010E947A0EC8016CE348E12CE0D7
:1009F00032E00E943C0E6091690170916A01809121
:100A00006B0190916C010E943003C8016CE340E2DD
:100A100097010E947A0EC8016CE348E225E032E0BB
:100A20000E943C0E6091590170915A0180915B01C6
:100A300090915C010E943003C8016CE340E3970190
:100A40000E947A0EC8016CE348E320E032E00E9485
:100A50003C0EC8016CE340E427EF31E00E943C0EFD
:100A60001F910F91FF90EF900895CF92DF92EF9238
:100A7000FF920F931F9320E2E22E21E0F22EC70196
:100A800060E00E94680AC70160E040E02CE832E0C4
:100A90000E943C0EC70160E048E026E832E00E9478
:100AA0003C0E60913D0170913E0180913F0190911B
:100AB00040010E94300390E3C92E91E0D92EC70176
:100AC00060E040E196010E947A0EC70160E048E1D3
:100AD00020E832E00E943C0E60915D0170915E0161
:100AE00080915F01909160010E943003C70160E036
:100AF00040E296010E947A0EC70160E048E229E7D1
:100B000032E00E943C0E60914D0170914E01809147
:100B10004F01909150010E943003C70160E040E313
:100B200096010E947A0EC70160E048E324E732E0B4
:100B30000E943C0E20916D0130916E01C70160E072
:100B400040E40AE010E00E94B30EC7016FE672E0D5
:100B50000E94530E6091710170917201C7014AE0C9
:100B600050E00E94CD0EC7016CE340E028E632E081
:100B70000E943C0EC7016CE348E022E632E00E948E
:100B80003C0E60914101709142018091430190912E
:100B900044010E943003C7016CE340E196010E94CA
:100BA0007A0EC7016CE348E12CE532E00E943C0E6E
:100BB0006091610170916201809163019091640183
:100BC0000E943003C7016CE340E296010E947A0E56
:100BD000C7016CE348E225E532E00E943C0E6091DB
:100BE00051017091520180915301909154010E94E2
:100BF0003003C7016CE340E396010E947A0EC701FF
:100C00006CE348E320E532E00E943C0E20916F0146
:100C100030917001C7016CE340E40E94B30EC7013C
:100C20006BE472E00E94530E609171017091720149
:100C3000C7014AE050E00E94CD0E1F910F91FF9036
:100C4000EF90DF90CF900895EF92FF920F931F9354
:100C50000E9477157B018C018091390190913A01B6
:100C6000A0913B01B0913C01A8019701281B390BD1
:100C70004A0B5B0B8091020190910301A09104014A
:100C8000B0910501281739074A075B0708F18091E1
:100C9000000190910101892B41F00E94350580915E
:100CA000000190910101019707C00E946E0480919C
:100CB0000001909101010196909301018093000140
:100CC000E0923901F0923A0100933B0110933C010C
:100CD00086E291E00E94A509882381F00E943505F3
:100CE000E0923901F0923A0100933B0110933C01EC
:100CF00081E090E090930101809300011F910F919A
:100D0000FF90EF900895EF92FF920F931F9335E4B9
:100D1000E32E31E0F32E8DEA9EE3A0E0B0E0809375
:100D2000450190934601A0934701B09348018BE0A1
:100D300093E3A0E0B0E08093490190934A01A0932F
:100D40004B01B0934C018DE698E4AEE0B0E08093A7
:100D5000550190935601A0935701B0935801809389
:100D6000590190935A01A0935B01B0935C0185E116
:100D70009BE7A1E0B0E08093650190936601A093AA
:100D80006701B093680183E497E7A1E0B0E0809346
:100D9000690190936A01A0936B01B0936C0188EF95
:100DA0009FEFE80EF91E8DEC9CE8A0E0B0E0F701A3
:100DB00080839183A283B3838BE19AE5A0E0B0E0C6
:100DC0008093410190934201A0934301B093440169
:100DD0008DE693E1A2E0B0E080934D0190934E0147
:100DE000A0934F01B09350018DE09AE9A3E0B0E0E9
:100DF0008093510190935201A0935301B0935401F9
:100E000085EA99E6A0E0B0E080935D0190935E01F1
:100E1000A0935F01B093600183EC9EE3A0E0B0E09B
:100E20008093610190936201A0936301B093640188
:100E300082E090E090936E0180936D0183E090E0FA
:100E40009093700180936F0186E090E0909372011F
:100E5000809371010BEF11E0C80140E855E260E0BA
:100E600070E00E94F10786E291E0B70146E3980145
:100E70000E94550A00E211E0C80160E040E728E462
:100E80000E947F0DC80163E972E00E94AE0D0E94CE
:100E9000C103C80160E00E94680A0E9435051F91E5
:100EA0000F91FF90EF900895CF93DF930E948515E7
:100EB0000E948306CFE9D7E00E9424062097E1F341
:100EC0000E949F07F9CF08951F920F920FB60F92BD
:100ED00011242F933F934F938F939F93EF93FF93FF
:100EE0008091C00082FD1DC04091C6002091B301D9
:100EF0003091B4012F5F3F4F2F7330708091B50157
:100F00009091B6012817390771F0E091B301F09183
:100F1000B401ED58FE4F40833093B4012093B301E8
:100F200002C08091C600FF91EF919F918F914F91E8
:100F30003F912F910F900FBE0F901F901895E09149
:100F40000702F0910802E05CFF4F819191912081AE
:100F50003181805C9F4F821B930B60E470E00E94A4
:100F60009918892B11F00E94630708951F920F9220
:100F70000FB60F9211242F933F938F939F93EF936C
:100F8000FF932091F7013091F8018091F901909140
:100F9000FA012817390731F48091C1008F7D8093C1
:100FA000C10014C0E091F901F091FA01E954FE4F3B
:100FB00020818091F9019091FA0101968F739070D0
:100FC0009093FA018093F9012093C600FF91EF916D
:100FD0009F918F913F912F910F900FBE0F901F9077
:100FE0001895AF92BF92DF92EF92FF920F931F93EB
:100FF000CF93DF93EC017A018B01DD24403081EE49
:10100000580780E0680780E0780711F0DD24D3946A
:1010100091E0A92EB12CEC89FD89DD2069F0C50194
:1010200008A002C0880F991F0A94E2F7808360E04D
:1010300079E08DE390E005C0108260E874E88EE10D
:1010400090E0A80197010E94AC1821503040404028
:101050005040569547953795279580E120303807C1
:1010600020F0DD2011F0DD24D6CFE889F989308326
:10107000EA89FB89208319A2EE89FF89408121E05A
:1010800030E0C9010C8C02C0880F991F0A94E2F766
:10109000482B4083EE89FF894081C9010D8C02C035
:1010A000880F991F0A94E2F7482B4083EE89FF8945
:1010B0004081C9010E8C02C0880F991F0A94E2F783
:1010C000482B4083EE89FF8980810F8C02C0220F5C
:1010D000331F0A94E2F7209528232083DF91CF91D4
:1010E0001F910F91FF90EF90DF90BF90AF90089508
:1010F000DC011C96ED91FC911D97E05CFF4F819106
:10110000919120813181805C9F4F821B930B60E421
:1011100070E00E9499180895DC011C96ED91FC91F5
:101120001D97E05CFF4F20813181E054F040DF01EA
:10113000AE5BBF4F8D919C9111972817390719F419
:101140002FEF3FEF07C08D919C91E80FF91F808131
:10115000282F30E0C9010895DC011C96ED91FC9127
:101160001D97E05CFF4F20813181E054F040DF01AA
:10117000AE5BBF4F8D919C9111972817390719F4D9
:101180002FEF3FEF10C08D919C911197E80FF91F41
:1011900020818D919C91119701968F73907011967B
:1011A0009C938E9330E0C9010895DC0191968C9157
:1011B0009197882339F05496ED91FC915597808151
:1011C00086FFF9CF91961C920895CF93DF93EC019F
:1011D000EE85FF85E05CFF4F20813181E054F040D7
:1011E0002F5F3F4F2F733070DF01AE5BBF4F8D918C
:1011F0009C91119728173907D1F3E05CFF4F80814C
:101200009181E054F040E80FF91F6083EE85FF857F
:10121000E05CFF4F31832083EE89FF89208181E0EC
:1012200090E00F8C02C0880F991F0A94E2F7282BD8
:10123000208381E089A3EC89FD898081806480839B
:1012400081E090E0DF91CF9108951092FE0110921D
:10125000FD0188EE93E0A0E0B0E08093FF01909361
:101260000002A0930102B093020284E191E0909306
:10127000FC018093FB0183E791E090930802809347
:10128000070287EB91E090930A028093090285ECB4
:1012900090E090930C0280930B0284EC90E090938A
:1012A0000E0280930D0280EC90E0909310028093E8
:1012B0000F0281EC90E0909312028093110282EC75
:1012C00090E0909314028093130286EC90E0909348
:1012D00016028093150284E08093170283E08093C6
:1012E000180287E08093190285E080931A0281E05A
:1012F00080931B020895CF92DF92EF92FF920F939B
:101300001F93CF93DF937C016B018A01C0E0D0E093
:101310000FC0D6016D916D01D701ED91FC91019047
:10132000F081E02DC7010995C80FD91F0150104069
:101330000115110571F7CE01DF91CF911F910F912A
:10134000FF90EF90DF90CF900895FF920F931F933F
:10135000CF93DF93EC018885882309F043C0E881AF
:10136000F981A081B18114962D913C911597CF01FF
:10137000F9010995039764F435C0ED91FC9111973B
:101380000480F581E02DCD01099503970CF47CC014
:10139000E881F981A081B18116962D913C91179732
:1013A000CF01F9010995A881B981069731F7ED912F
:1013B000FC9111970680F781E02DCD0109958538C4
:1013C000910581F4A881B981ED91FC911197068076
:1013D000F781E02DCD01099588879C81891711F04F
:1013E000188652C08885882309F44EC0E881F981A7
:1013F000A081B18114962D913C911597CF01F901EF
:101400000995892B09F447C0FF8088858F1508F45A
:1014100042C00D811E810F0D111DA881B981ED9172
:10142000FC9111970680F781E02DCD010995F80117
:101430008083F394FF82DACF498720E030E007C051
:10144000A20FB31F8C91482749872F5F3F4F888594
:1014500090E0AD81BE814985281739078CF38F81D3
:10146000FD01E80FF11D31978081481759F44C8137
:101470008A819B81BD0150E00E94F60218861F827E
:1014800081E003C018861F8280E0DF91CF911F9119
:101490000F91FF9008954885242F30E08F8190E0D0
:1014A00001972817390781F7C7CF0F931F938C0136
:1014B000842FF8017383628344833183208390E017
:1014C0000E94C015F801858396831F910F9108959E
:1014D000FC01613009F1613030F0623009F04BC03D
:1014E00040E050E03EC01282138240E050E009C06C
:1014F000E0912E02F0912F02E40FF51F10824F5F52
:101500005F4F8091280220912902829FC0011124FF
:10151000481759076CF308951282138240E050E097
:101520003FEF09C0E0912E02F0912F02E40FF51F6A
:1015300030834F5F5F4F8091280220912902829F64
:10154000C0011124481759076CF30895E0912E0249
:10155000F0912F02E40FF51F8081809580834F5F0B
:101560005F4F8091280220912902829FC00111249F
:10157000481759075CF3089580912902880F880F56
:10158000880F0895809128020895809126029091F5
:1015900027028650914009F5609121027091220244
:1015A00080912302909124020E94891723E333E360
:1015B0004EE752E40E94171820E030E043E853E47D
:1015C0000E94171820E030E04AE754E40E94F51624
:1015D0000E945D179B01AC0118C0609121027091BF
:1015E0002202809123029091240220E03EE440E018
:1015F00050E00E947A1828EE33E040E050E00E946C
:10160000AC18C901DA019C01AD01B901CA01089504
:10161000AF92BF92CF92DF92EF92FF920F931F9300
:10162000CF93DF93EC017B010E94C50A5B016C0143
:1016300000E010E0AE0CBF1CC01ED11ECE010E9407
:10164000C50A6A157B058C059D05C0F3DF91CF9116
:101650001F910F91FF90EF90DF90CF90BF90AF90D0
:1016600008952F923F924F925F926F927F928F9246
:101670009F92AF92BF92CF92DF92EF92FF920F9321
:101680001F93DF93CF93CDB7DEB72C970FB6F894A7
:10169000DEBF0FBECDBF9A878987A42F29012E2DCB
:1016A0002C2C462F477078E0F72EF41AEE2039F4F0
:1016B000F201E00FF11FE4910F5F1F4F2E2F222048
:1016C00039F4F201E00FF11FE4910F5F1F4F2E2E4E
:1016D000822F90E087709070322F36953695369530
:1016E000892B29F0822F8770332E339402C0332E3A
:1016F00088E0669566956695262F30E03E832D83BB
:10170000642E7724B301680F711D8FEF90E0AC0158
:10171000062E02C0559547950A94E2F749839C012D
:101720000F2C02C0220F331F0A94E2F72C834B8345
:1017300068507040062E02C0959587950A94E2F78E
:10174000685F7F4F8A83CC24DD248A2F90E09887BE
:101750008F83A32CBB240894A108B108A5C02F81B6
:1017600038852C0D3D1D8091290290E0289FD001E5
:10177000299FB00D389FB00D1124ED81FE81AE0F71
:10178000BF1FF1E03F1611F4898101C080E0E985B7
:10179000FA85208131812A0F3B1FF901E080FC810D
:1017A0008F2B8E21F9018083A201400F511F0F5F03
:1017B0001F4FFA013491E985FA85808091808A0E65
:1017C0009B1E832F90E0062C02C0959587950A9466
:1017D000E2F7F4012081282B208311964501800E29
:1017E000911E28C0E985FA850190F081E02DEA0F6D
:1017F000FB1FE080832F90E00F2C02C0880F991F01
:101800000A94E2F78083FA013491E985FA85019020
:10181000F081E02DEA0FFB1F832F90E0062C02C021
:10182000959587950A94E2F72081282B20831196BD
:101830000F5F1F4F4F5F5F4F0815190598F2683013
:10184000710574F41197E985FA85808091808A0E7C
:101850009B1E1196FB81EF22F40180818E298083EB
:101860006930710564F0E985FA85808091808A0E7F
:101870009B1EF4018081FA818F23F4018083E98526
:10188000FA85808091808A0E9B1E832F90E00F2C1A
:1018900002C0880F991F0A94E2F7F4012081282BD7
:1018A00020830894C11CD11CC21408F458CF2C9674
:1018B0000FB6F894DEBF0FBECDBFCF91DF911F9161
:1018C0000F91FF90EF90DF90CF90BF90AF909F90DF
:1018D0008F907F906F905F904F903F902F900895E2
:1018E000CF92DF92EF92FF920F931F93CF93DF93EC
:1018F000413079F1413038F0423009F454C043307E
:1019000009F0F4C09AC0A0912E02B0912F0220914C
:10191000290230E0862F90E0829FF001839FF00D36
:10192000929FF00D1124EA0FFB1F8091280290E096
:10193000829FA001839F500D929F500D11244A0F4A
:101940005B1F03C080818D9311924E175F07D0F704
:10195000CDC040912E0250912F022091290230E0FB
:101960008091280290E0289FD001299FB00D389FD8
:10197000B00D1124A40FB51F862F90E0BC01629F0B
:10198000C001639F900D729F900D1124FD01E81B13
:10199000F90B05C080818C93108211973197E41761
:1019A000F507C0F7A3C0062F077066956695669584
:1019B000E62EFF2410E0C02FD0E068E070E06C1B42
:1019C0007D0B36C020912902129FC0011124E091A5
:1019D0002E02F0912F02E80FF91FDF01AE0DBF1D9F
:1019E000422F50E0425050404E0F5F1F12C030E077
:1019F0000C2E02C0220F331F0A94E2F71D928C9125
:101A000090E0062E02C0959587950A94E2F7282B60
:101A100021932C914A175B0750F7822F90E0002EFC
:101A200002C0880F991F0A94E2F71C9280831F5FFF
:101A300080912802181730F259C0062F077066955A
:101A400066956695862F90E0EE24FF24E81AF90A41
:101A500010E0E2E0CE2ED12CC02FD0E068E070E0A4
:101A60006C1B7D0B3EC080912902482F50E09A01EB
:101A700021503040189FC0011124280F391FE091D8
:101A80002E02F0912F02E20FF31FDF01AE0DBF1DFA
:101A9000C601841B950BAC014E0F5F1F13C030E0D5
:101AA0000C2E02C0359527950A94E2F71C928E9170
:101AB00090E0062E02C0880F991F0A94E2F7282BA7
:101AC000208331972C91A417B50748F7822F90E017
:101AD000002E02C0959587950A94E2F71C928083A8
:101AE0001F5F80912802181708F4BDCFDF91CF91B6
:101AF0001F910F91FF90EF90DF90CF900895FF928C
:101B00000F931F93CF93DF93EC01F62E022F842FB8
:101B1000887F11F481E01CC0142F16951695169538
:101B2000219FC00111240E94C0159C0199838883C4
:101B3000009711F484E00CC01A821B828F2D612F54
:101B4000402F0E947B0FCE0160E00E94680A80E077
:101B5000DF91CF911F910F91FF900895FC01758344
:101B600064830895DC0113964C9113971496ED91BC
:101B7000FC91159731966491242F30E080912802D2
:101B800090E0861B9109281739072CF0CD0140E021
:101B90000E94700C0895640F13966C930895CF9271
:101BA000EF920F931F93DC01022F1496ED91FC919D
:101BB0001597329684913197C4903197E490081B21
:101BC0000C9D800111240D5F1F4FCD019F010E94CC
:101BD000310B1F910F91EF90CF9008951F93CF93EA
:101BE000DF93EC01162F6A3069F06B3030F4662316
:101BF00009F43EC06830B9F409C06D3091F06E3020
:101C000091F436C01A820E94B20D32C0EC81FD817F
:101C1000E4916A816E1B6A834B8120E20E94CF0DA2
:101C200027C01A8225C06A81EC81FD81E491262FAC
:101C300030E08091290290E043E0880F991F4A9597
:101C4000E1F78E1B9109281739073CF01A82CE0163
:101C50000E94B20DCE016A8101C0CE014B81212FBD
:101C60000E94CF0DEC81FD81E4918A818E0F8A83E1
:101C7000DF91CF911F9108950F931F93CF93DF931F
:101C80008C01E901FC016283438304C02196C801F1
:101C90000E94EE0DFE0164916623C1F7DF91CF91A2
:101CA0001F910F9108950F931F93CF93DF938C0192
:101CB000EB0104C02196C8010E94EE0DFE01649163
:101CC0006623C1F7DF91CF911F910F9108950F9374
:101CD0001F93CF93DF938C01EB0104C02196C801C1
:101CE0000E94EE0D68816623C9F7DF91CF911F91A5
:101CF0000F910895FC0162834383B9010E94670E2E
:101D00000895EF92FF920F931F93CF93DF93EC010F
:101D10007A018B012115310521F4642F0E94EE0D0B
:101D20001BC02A303105B1F477FF10C04DE250E0FE
:101D300060E070E020E030E00E94810E1095009598
:101D4000F094E094E11CF11C011D111DCE01B801BD
:101D5000A7012AE00E94E00EDF91CF911F910F9121
:101D6000FF90EF900895CF92DF92EF92FF920F9342
:101D70001F93FC016901980162834383EE24D7FC21
:101D8000E094FE2CB701A6010E94810E1F910F91D5
:101D9000FF90EF90DF90CF900895EF92FF920F9316
:101DA0001F937B019A010027F7FC0095102FB801C3
:101DB000A7010E94810E1F910F91FF90EF9008954F
:101DC0002F923F924F925F926F927F928F929F924B
:101DD000AF92BF92CF92DF92EF92FF920F931F9339
:101DE000DF93CF93CDB7DEB7A0970FB6F894DEBFE1
:101DF0000FBECDBF1C016A017B0141155105610574
:101E0000710549F440E350E060E070E020E030E02C
:101E10000E94810E56C0882499245401422E5524D4
:101E20006624772401E010E00C0F1D1F080D191D1A
:101E3000C701B601A30192010E94AC18F8016083AA
:101E40000894811C911CA11CB11CC701B601A301FF
:101E500092010E94AC18C901DA016C017D01C11424
:101E6000D104E104F104F1F651E0E52EF12CEC0E81
:101E7000FD1EE80CF91C3E010894611C711CD50183
:101E8000C4010197A109B1096C01C818D90816C08D
:101E9000F601EE0DFF1D40814A3010F4405D01C097
:101EA000495C552747FD5095652F752FC10120E0EE
:101EB00030E00E94810E0894E108F1086E147F045E
:101EC00039F7A0960FB6F894DEBF0FBECDBFCF9105
:101ED000DF911F910F91FF90EF90DF90CF90BF9017
:101EE000AF909F908F907F906F905F904F903F90BA
:101EF0002F9008950895FF920F931F93F82EE62FC9
:101F0000142F30932F0220932E02609329024093C6
:101F100028021092210210922202109223021092A3
:101F20002402882319F084E091E002C088ED90E05B
:101F3000612F70E00E949918615060932B0200910C
:101F40002B0200932C022E2F30E083E0220F331F50
:101F50008A95E1F7442737FD4095542F60EE72E0F3
:101F600080E090E00E94CE18243069F0253018F40B
:101F7000233061F410C0253019F0263039F408C040
:101F800082ED91E10AC088E192E107C0273018F0A4
:101F900083E891E102C082E592E19093310280935F
:101FA0003002579A219A5F98299A239A82EC80935B
:101FB000800089E180938100412F50E0202F33275A
:101FC00027FD3095FF2011F12F5F3F4F429FC00149
:101FD000439F900D529F900D112462E070E00E948B
:101FE0009918709561957F4F64566093250287EC30
:101FF00080932A0287E080932D0288E391E09093FA
:102000002702809326028FEF93E021C02F5F3F4F7E
:10201000429FC001439F900D529F900D112462E09A
:1020200070E00E949918709561957F4F6557609395
:1020300025028FEB80932A0283E080932D0286E0B5
:1020400091E0909327028093260287EF93E090938C
:102050008700809386008AE490E0909389008093C3
:102060008800809126029091270201969093200289
:1020700080931F0287E091E19093330280933202B4
:1020800081E080936F0078941F910F91FF900895E5
:102090001F920F920FB60F9211242F933F934F93DD
:1020A0005F936F937F938F939F93AF93BF93EF93C0
:1020B000FF93E0910601F09107010995E09132024A
:1020C000F09133020995FF91EF91BF91AF919F91EC
:1020D0008F917F916F915F914F913F912F910F90D1
:1020E0000FBE0F901F90189520911F023091200273
:1020F0008091250290E02817390779F410921E028A
:1021000010921D0280912B0280932C028DEA90E1A7
:10211000909333028093320216C020911F023091B7
:10212000200280912602909127022817390759F43E
:1021300087E091E19093330280933202E0910801AD
:10214000F0910901099580911F029091200201965A
:102150009093200280931F02089530918400209173
:102160002A022A50231B2350F0F72D5F19F02A95DD
:1021700011F001C00000E0913002F09131020995A8
:1021800080912C02882389F480912B0280932C0269
:102190002091290280911D0290911E02820F911DB3
:1021A00090931E0280931D0203C0815080932C02E5
:1021B00040911F02509120024F5F5F4F20912B02F0
:1021C000332727FD30952F5F3F4F8091280290E005
:1021D000BC01269FC001279F900D369F900D1124B2
:1021E00020912502820F911D4817590731F484E789
:1021F00090E1909333028093320280911F0290917C
:10220000200201969093200280931F02089520914E
:102210001F023091200280912602909127022817F8
:1022200039070CF44EC08CEA93E0909389008093B8
:1022300088001092200210921F028091210290913A
:102240002202A0912302B09124020196A11DB11D8A
:102250008093210290932202A0932302B093240240
:102260008091340290913502A0913602B0913702EC
:102270000097A105B10509F18091340290913502D2
:10228000A0913602B0913702181619061A061B06DD
:1022900084F58091340290913502A0913602B0917C
:1022A00037020197A109B109809334029093350256
:1022B000A0933602B09337021CC01092B1002B9845
:1022C00018C020911F023091200280912D02992781
:1022D00087FD90952817390761F48AE490E0909380
:1022E00089008093880084E790E190933302809383
:1022F000320280911F029091200201969093200259
:1023000080931F0208950F93CF93DF93A0912E0225
:10231000B0912F0280911D0290911E0220912902FE
:10232000EC01AC0FBD1F0BB10F7703C000FA07F92A
:102330000BB90D90000007FA07F90BB90000000077
:10234000000006FA07F90BB900000000000005FACA
:1023500007F90BB900000000000004FA07F90BB9F7
:1023600000000000000003FA07F90BB900000000AC
:10237000000002FA07F90BB900000000000001FAA2
:1023800007F90BB92A9591F60000000000FA07F949
:102390000BB90BB10F7707FB07F90BB9DF91CF91A1
:1023A0000F9108950F93CF93DF93A0912E02B091D8
:1023B0002F0280911D0290911E0220912902EC01B2
:1023C000AC0FBD1F0BB10F7703C000FA07F90BB9B3
:1023D0000D9007FA07F90BB90000000006FA07F99B
:1023E0000BB90000000005FA07F90BB90000000066
:1023F00004FA07F90BB90000000003FA07F90BB95A
:102400000000000002FA07F90BB900002A9501FA52
:1024100007F90BB9D1F6000000FA07F90BB90BB1B7
:102420000F7707FB07F90BB9DF91CF910F91089553
:102430000F93CF93DF93A0912E02B0912F02809142
:102440001D0290911E0220912902EC01AC0FBD1FCC
:1024500002C0000C0BB80D9000000BB8000000008B
:10246000000C0BB800000000000C0BB800000000CE
:10247000000C0BB800000000000C0BB800000000BE
:10248000000C0BB80000000C2A950BB811F70000E7
:10249000000C0BB80000000000005F98DF91CF91A6
:1024A0000F9108950F93CF93DF93A0912E02B091D7
:1024B0002F0280911D0290911E0220912902EC01B1
:1024C000AC0FBD1F2E3191F02D3151F02C3149F060
:1024D0002B3141F02A3139F0293131F0283129F0FE
:1024E0001CC032C048C05EC074C08AC00D900BB81A
:1024F0000000000C0BB80000000C0BB80000000C32
:102500000BB80000000C0BB80000000C0BB800006A
:10251000000C0BB80000000C0BB80D900BB80000BD
:10252000000C0BB80000000C0BB80000000C0BB83E
:102530000000000C0BB80000000C0BB80000000CF1
:102540000BB80000000C0BB80D900BB80000000C8D
:102550000BB80000000C0BB80000000C0BB800001A
:10256000000C0BB80000000C0BB80000000C0BB8FE
:102570000000000C0BB80D900BB80000000C0BB85D
:102580000000000C0BB80000000C0BB80000000CA1
:102590000BB80000000C0BB80000000C0BB80000DA
:1025A000000C0BB80D900BB80000000C0BB800002D
:1025B000000C0BB80000000C0BB80000000C0BB8AE
:1025C0000000000C0BB80000000C0BB80000000C61
:1025D0000BB80D900BB80000000C0BB80000000CFD
:1025E0000BB80000000C0BB80000000C0BB800008A
:1025F000000C0BB80000000C0BB80000000C0BB86E
:102600000D900BB80000000C0BB80000000C0BB8CC
:102610000000000C0BB80000000C0BB80000000C10
:102620000BB80000000C0BB80000000C0BB80D90AC
:102630000BB80000000C0BB80000000C0BB8000039
:10264000000C0BB80000000C0BB80000000C0BB81D
:102650000000000C0BB80000000C0BB80D900BB87C
:102660000000000C0BB80000000C0BB80000000CC0
:102670000BB80000000C0BB80000000C0BB80000F9
:10268000000C0BB80000000C0BB80D900BB800004C
:10269000000C0BB80000000C0BB80000000C0BB8CD
:1026A0000000000C0BB80000000C0BB80000000C80
:1026B0000BB80000000C0BB80D900BB80000000C1C
:1026C0000BB80000000C0BB80000000C0BB80000A9
:1026D000000C0BB80000000C0BB80000000C0BB88D
:1026E0000000000C0BB80D900BB80000000C0BB8EC
:1026F0000000000C0BB80000000C0BB80000000C30
:102700000BB80000000C0BB80000000C0BB8000068
:10271000000C0BB80D900BB80000000C0BB80000BB
:10272000000C0BB80000000C0BB80000000C0BB83C
:102730000000000C0BB80000000C0BB80000000CEF
:102740000BB80D900BB80000000C0BB80000000C8B
:102750000BB80000000C0BB80000000C0BB8000018
:10276000000C0BB80000000C0BB80000000C0BB8FC
:102770000D900BB80000000C0BB80000000C0BB85B
:102780000000000C0BB80000000C0BB80000000C9F
:102790000BB80000000C0BB80000000C0BB80D903B
:1027A0000BB80000000C0BB80000000C0BB80000C8
:1027B000000C0BB80000000C0BB80000000C0BB8AC
:1027C0000000000C0BB80000000C0BB80D900BB80B
:1027D0000000000C0BB80000000C0BB80000000C4F
:1027E0000BB80000000C0BB80000000C0BB8000088
:1027F000000C0BB80000000C0BB80D900BB80000DB
:10280000000C0BB80000000C0BB80000000C0BB85B
:102810000000000C0BB80000000C0BB80000000C0E
:102820000BB80000000C0BB80D900BB80000000CAA
:102830000BB80000000C0BB80000000C0BB8000037
:10284000000C0BB80000000C0BB80000000C0BB81B
:102850000000000C0BB80D900BB80000000C0BB87A
:102860000000000C0BB80000000C0BB80000000CBE
:102870000BB80000000C0BB80000000C0BB80000F7
:10288000000C0BB80D900BB80000000C0BB800004A
:10289000000C0BB80000000C0BB80000000C0BB8CB
:1028A0000000000C0BB80000000C0BB80000000C7E
:1028B0000BB80D900BB80000000C0BB80000000C1A
:1028C0000BB80000000C0BB80000000C0BB80000A7
:1028D000000C0BB80000000C0BB80000000C0BB88B
:1028E0000D900BB80000000C0BB80000000C0BB8EA
:1028F0000000000C0BB80000000C0BB80000000C2E
:102900000BB80000000C0BB80000000C0BB80D90C9
:102910000BB80000000C0BB80000000C0BB8000056
:10292000000C0BB80000000C0BB80000000C0BB83A
:102930000000000C0BB80000000C0BB80D900BB899
:102940000000000C0BB80000000C0BB80000000CDD
:102950000BB80000000C0BB80000000C0BB8000016
:10296000000C0BB80000000C0BB80D900BB8000069
:10297000000C0BB80000000C0BB80000000C0BB8EA
:102980000000000C0BB80000000C0BB80000000C9D
:102990000BB80000000C0BB80D900BB80000000C39
:1029A0000BB80000000C0BB80000000C0BB80000C6
:1029B000000C0BB80000000C0BB80000000C0BB8AA
:1029C0000000000C0BB80D900BB80000000C0BB809
:1029D0000000000C0BB80000000C0BB80000000C4D
:1029E0000BB80000000C0BB80000000C0BB8000086
:1029F000000C0BB80D900BB80000000C0BB80000D9
:102A0000000C0BB80000000C0BB80000000C0BB859
:102A10000000000C0BB80000000C0BB80000000C0C
:102A20000BB80D900BB80000000C0BB80000000CA8
:102A30000BB80000000C0BB80000000C0BB8000035
:102A4000000C0BB80000000C0BB80000000C0BB819
:102A5000000000005F98DF91CF910F9108951F92C1
:102A60000F920FB60F9211242F933F938F939F9342
:102A7000AF93BF9380913C0290913D02A0913E02A2
:102A8000B0913F02309140020196A11DB11D232F4C
:102A90002D5F2D3720F02D570196A11DB11D2093DC
:102AA000400280933C0290933D02A0933E02B0937B
:102AB0003F028091380290913902A0913A02B09180
:102AC0003B020196A11DB11D8093380290933902FB
:102AD000A0933A02B0933B02BF91AF919F918F9127
:102AE0003F912F910F900FBE0F901F9018958FB7A9
:102AF000F89420913C0230913D0240913E02509169
:102B00003F028FBFB901CA010895789484B58260ED
:102B100084BD84B5816084BD85B5826085BD85B581
:102B2000816085BDEEE6F0E0808181608083E1E830
:102B3000F0E0108280818260808380818160808368
:102B4000E0E8F0E0808181608083E1EBF0E080816B
:102B500084608083E0EBF0E0808181608083EAE73D
:102B6000F0E08081846080838081826080838081C6
:102B7000816080838081806880831092C100089585
:102B80000F931F93CF93DF93BC018230910510F414
:102B900062E070E0E0914302F0914402A0E0B0E016
:102BA00040E050E024C08081918186179707D0F0E3
:102BB0008617970771F482819381109729F01396F5
:102BC0009C938E9312972CC090934402809343025F
:102BD00027C04115510519F08417950718F4EF0126
:102BE0008D01AC01DF01828193819C01F901309755
:102BF000D1F641155105F9F0CA01861B970B8430B7
:102C0000910580F48A819B810115110521F0F8015D
:102C10009383828304C09093440280934302FE0115
:102C2000329645C0FE01E80FF91F61937193029738
:102C3000998388833CC08091410290914202892B04
:102C400041F480910C0190910D0190934202809388
:102C5000410240910E0150910F014115510541F47F
:102C60004DB75EB780910A0190910B01481B590B3B
:102C7000209141023091420224173507B0F4CA0175
:102C8000821B930B8617970780F0AB014E5F5F4F57
:102C90008417950750F0420F531F50934202409300
:102CA0004102F9016193719302C0E0E0F0E0CF01CD
:102CB000DF91CF911F910F910895CF93DF939C01E6
:102CC000009709F48FC0EC0122971B821A82609151
:102CD0004302709144026115710581F488819981E4
:102CE000820F931F20914102309142022817390729
:102CF00039F5D0934202C093410274C0DB0140E039
:102D000050E0AC17BD0708F1BB83AA83FE012191F7
:102D10003191E20FF31FAE17BF0779F48D919C91AB
:102D20001197280F391F2E5F3F4F39832883129642
:102D30008D919C9113979B838A834115510571F462
:102D4000D0934402C09343024DC012968D919C9142
:102D50001397AD01009711F0DC01D3CFDA01139680
:102D6000DC93CE931297FA0121913191E20FF31F78
:102D7000CE17DF0769F488819981280F391F2E5FEC
:102D80003F4FFA01318320838A819B819383828321
:102D9000E0E0F0E0DB0112968D919C911397009793
:102DA00019F0BC01FD01F6CFAB014E5F5F4FDB01B7
:102DB0008D919C91840F951F209141023091420288
:102DC0002817390779F4309729F4109244021092A9
:102DD000430202C01382128242505040509342027A
:102DE00040934102DF91CF9108950CD0E6C0DED030
:102DF00040F0D5D030F021F45F3F19F0C7C0511139
:102E000010C1CAC0EBD098F39923C9F35523B1F38D
:102E1000951B550BBB27AA2762177307840738F049
:102E20009F5F5F4F220F331F441FAA1FA9F333D0A8
:102E30000E2E3AF0E0E830D091505040E695001C5C
:102E4000CAF729D0FE2F27D0660F771F881FBB1F18
:102E5000261737074807AB07B0E809F0BB0B802DF2
:102E6000BF01FF2793585F4F2AF09E3F510568F03E
:102E70008DC0D7C05F3FECF3983EDCF38695779525
:102E80006795B795F7959F5FC9F7880F911D969540
:102E9000879597F90895E1E0660F771F881FBB1F9C
:102EA000621773078407BA0720F0621B730B840B49
:102EB000BA0BEE1F88F7E095089598D088F09F57D9
:102EC00090F0B92F9927B751A0F0D1F0660F771F76
:102ED000881F991F1AF0BA95C9F712C0B13081F056
:102EE0009FD0B1E008959CC0672F782F8827B85FE6
:102EF00039F0B93FCCF3869577956795B395D9F7B7
:102F00003EF490958095709561957F4F8F4F9F4FC0
:102F10000895E89409C097FB3EF4909580957095CC
:102F200061957F4F8F4F9F4F9923A9F0F92F96E915
:102F3000BB279395F695879577956795B795F1118A
:102F4000F8CFFAF4BB0F11F460FF1BC06F5F7F4F27
:102F50008F4F9F4F16C0882311F096E911C0772339
:102F600021F09EE8872F762F05C0662371F096E842
:102F7000862F70E060E02AF09A95660F771F881F11
:102F8000DAF7880F9695879597F9089597F99F67CF
:102F900080E870E060E008959FEF80EC08950024E1
:102FA0000A941616170618060906089500240A94AE
:102FB00012161306140605060895092E0394000C34
:102FC00011F4882352F0BB0F40F4BF2B11F460FFC3
:102FD00004C06F5F7F4F8F4F9F4F089557FD9058EC
:102FE000440F551F59F05F3F71F04795880F97FBCD
:102FF000991F61F09F3F79F0879508951216130687
:103000001406551FF2CF4695F1DF08C016161706B5
:103010001806991FF1CF86957105610508940895EA
:10302000E894BB2766277727CB0197F908950BD043
:10303000C4CFB5DF28F0BADF18F0952309F0A6CF8A
:10304000ABCF1124EECFCADFA0F3959FD1F3950F3C
:1030500050E0551F629FF001729FBB27F00DB11D1C
:10306000639FAA27F00DB11DAA1F649F6627B00DAC
:10307000A11D661F829F2227B00DA11D621F739F95
:10308000B00DA11D621F839FA00D611D221F749FA3
:103090003327A00D611D231F849F600D211D822FEA
:1030A000762F6A2F11249F5750408AF0E1F0882331
:1030B0004AF0EE0FFF1FBB1F661F771F881F91503E
:1030C0005040A9F79E3F510570F060CFAACF5F3FF7
:1030D000ECF3983EDCF3869577956795B795F79571
:1030E000E7959F5FC1F7FE2B880F911D96958795F9
:1030F00097F90895629FD001739FF001829FE00DC0
:10310000F11D649FE00DF11D929FF00D839FF00D66
:10311000749FF00D659FF00D9927729FB00DE11D12
:10312000F91F639FB00DE11DF91FBD01CF011124EF
:10313000089597FB092E07260AD077FD04D049D0C1
:1031400006D000201AF4709561957F4F0895F6F728
:10315000909581959F4F0895A1E21A2EAA1BBB1B43
:10316000FD010DC0AA1FBB1FEE1FFF1FA217B30753
:10317000E407F50720F0A21BB30BE40BF50B661F69
:10318000771F881F991F1A9469F76095709580952D
:1031900090959B01AC01BD01CF01089597FB092ECD
:1031A00005260ED057FD04D0D7DF0AD0001C38F416
:1031B00050954095309521953F4F4F4F5F4F089563
:1031C000F6F790958095709561957F4F8F4F9F4F43
:1031D0000895AA1BBB1B51E107C0AA1FBB1FA6175E
:1031E000B70710F0A61BB70B881F991F5A95A9F7B0
:1031F00080959095BC01CD010895EE0FFF1F0590BD
:0A320000F491E02D0994F894FFCF3B
:10320A000100102700007A0F7A0F800045020000A3
:10321A0000000000E5087B097808AC088C08D5088E
:00000001FF
