:100000000C9462000C948A000C948A000C948A0070
:100010000C948A000C948A000C948A000C948A0038
:100020000C948A000C948A000C948A000C948A0028
:100030000C948A000C948A000C948A000C948A0018
:100040000C943F050C948A000C949D020C94EF02D2
:100050000C948A000C948A000C948A000C948A00F8
:100060000C948A000C948A000000000024002700F1
:100070002A0000000000250028002B0000000000DE
:1000800023002600290004040404040404040202DA
:100090000202020203030303030301020408102007
:1000A0004080010204081020010204081020000012
:1000B0000007000201000003040600000000000029
:1000C00000005E0411241FBECFEFD8E0DEBFCDBF1D
:1000D00011E0A0E0B1E0E6E6F1E102C005900D928A
:1000E000A832B107D9F712E0A8E2B1E001C01D9231
:1000F000A731B107E1F710E0C4ECD0E004C02297CB
:10010000FE010E94AD08C23CD107C9F70E948D02D2
:100110000C94B1080C940000EF92FF920F931F9380
:10012000E82FF0E03197DF01A25FBE4F9C919093E2
:100130005101EE0FFF1FEE0FFF1FDF01A25CBE4F4C
:100140002D913D914D915C9120935201309353013B
:100150004093540150935501DF01AE5CBE4F2D9189
:100160003D914D915C91EE5FFE4F20833183428340
:1001700053838150809350010E94870588E291E06B
:100180000E94DE0480914A01882309F43FC08091D7
:100190004B018823D9F110924A0110924B01109221
:1001A0004C0164E670E080E090E00E94950580914B
:1001B0000F018093510181E080935001EE24FF24D0
:1001C0008701E0925201F092530100935401109381
:1001D000550188E291E00E94DE0464E670E080E070
:1001E00090E00E949505809110018093510182E07A
:1001F00080935001E0925201F09253010093540118
:100200001093550188E291E00E94DE041F910F9146
:10021000FF90EF900895109257011092560110929E
:1002200059011092580125C08091580190915901AF
:100230000196909359018093580184E190E00E94C7
:10024000EE058091580190915901805D97408CF0A6
:1002500010925B0110925A0110925D0110925C01A4
:1002600010925F0110925E01109259011092580194
:1002700008954A99D9CF0CC082E060E020E432E4CE
:100280004FE050E00E947206709357016093560150
:100290004A9BF2CF2091560130915701C901885CE9
:1002A00090408159914048F480915A0190915B01AE
:1002B000019690935B0180935A01C9018458934041
:1002C0008955924048F480915C0190915D010196BE
:1002D00090935D0180935C01225130402B303105B9
:1002E00048F480915E0190915F01019690935F01C7
:1002F00080935E0180915A0190915B0106970CF406
:100300004FC00E9487052091320130913301409106
:10031000340150913501621B730B840B950B2091B6
:1003200000013091010140E050E0261737074807EF
:10033000590790F50E9487059B01AC01609332013B
:1003400070933301809334019093350181E0809361
:100350004A0180910E018F3F11F410920E0180919D
:100360000E018F5F80930E01809102019091030135
:10037000A0910401B0910501281B390B4A0B5B0BBE
:1003800020933E0130933F0140934001509341013F
:1003900081E00E948C0004C010925B0110925A010F
:1003A00080915C0190915D01069709F04FC00E9419
:1003B00087052091360130913701409138015091E5
:1003C0003901621B730B840B950B20910001309156
:1003D000010140E050E0261737074807590790F51C
:1003E0000E9487059B01AC01609336017093370131
:1003F000809338019093390181E080934B01809183
:100400000F018F3F11F410920F0180910F018F5F48
:1004100080930F018091060190910701A09108013E
:10042000B0910901281B390B4A0B5B0B2093420149
:1004300030934301409344015093450182E00E9470
:100440008C0004C010925D0110925C0180915E01ED
:1004500090915F010697C9F50E94870520913A01A6
:1004600030913B0140913C0150913D01621B730B67
:10047000840B950B209100013091010140E050E088
:100480002617370748075907E0F40E94870560934D
:100490003A0170933B0180933C0190933D0181E0D0
:1004A00080934C01809110018F3F11F41092100144
:1004B000809110018F5F8093100183E00E948C0077
:1004C000089510925F0110925E0108950F931F939B
:1004D00008EE11E0C80140E855E260E070E00E94DB
:1004E0002A0388E291E06DE471E049E098010E94FE
:1004F0002C0582E580934D0185E480934E0183E4D1
:1005000080934F0184E061E00E94330685E061E062
:100510000E9433061F910F910895CF93DF930E949D
:10052000F8050E946602C8EDD2E00E940B012097F8
:10053000E1F30E94D802F9CF08951F920F920FB6EF
:100540000F9211242F933F934F938F939F93EF9389
:10055000FF938091C00082FD1DC04091C600209194
:10056000A0013091A1012F5F3F4F2F733070809118
:10057000A2019091A3012817390771F0E091A00121
:10058000F091A101E05AFE4F40833093A1012093E6
:10059000A00102C08091C600FF91EF919F918F91C1
:1005A0004F913F912F910F900FBE0F901F90189574
:1005B000E091F401F091F501E05CFF4F81919191A0
:1005C00020813181805C9F4F821B930B60E470E03F
:1005D0000E946208892B11F00E949C0208951F92CC
:1005E0000F920FB60F9211242F933F938F939F93E7
:1005F000EF93FF932091E4013091E5018091E601B2
:100600009091E7012817390731F48091C1008F7D5F
:100610008093C10014C0E091E601F091E701EC5530
:10062000FE4F20818091E6019091E70101968F7342
:1006300090709093E7018093E6012093C600FF91AC
:10064000EF919F918F913F912F910F900FBE0F903F
:100650001F901895AF92BF92DF92EF92FF920F9387
:100660001F93CF93DF93EC017A018B01DD2440309F
:1006700081EE580780E0680780E0780711F0DD24FC
:10068000D39491E0A92EB12CEC89FD89DD2069F08D
:10069000C50108A002C0880F991F0A94E2F7808361
:1006A00060E079E08DE390E005C0108260E874E8D6
:1006B0008EE190E0A80197010E947508215030401A
:1006C00040405040569547953795279580E120301A
:1006D000380720F0DD2011F0DD24D6CFE889F98934
:1006E0003083EA89FB89208319A2EE89FF89408142
:1006F00021E030E0C9010C8C02C0880F991F0A94D8
:10070000E2F7482B4083EE89FF894081C9010D8CB7
:1007100002C0880F991F0A94E2F7482B4083EE89A4
:10072000FF894081C9010E8C02C0880F991F0A946D
:10073000E2F7482B4083EE89FF8980810F8C02C04D
:10074000220F331F0A94E2F7209528232083DF919C
:10075000CF911F910F91FF90EF90DF90BF90AF90DE
:100760000895DC011C96ED91FC911D97E05CFF4F14
:100770008191919120813181805C9F4F821B930BED
:1007800060E470E00E9462080895DC011C96ED911F
:10079000FC911D97E05CFF4F20813181E054F040D7
:1007A000DF01AE5BBF4F8D919C91119728173907E0
:1007B00019F42FEF3FEF07C08D919C91E80FF91FBF
:1007C0008081282F30E0C9010895DC011C96ED914D
:1007D000FC911D97E05CFF4F20813181E054F04097
:1007E000DF01AE5BBF4F8D919C91119728173907A0
:1007F00019F42FEF3FEF10C08D919C911197E80FE6
:10080000F91F20818D919C91119701968F739070A3
:1008100011969C938E9330E0C9010895DC01919666
:100820008C919197882339F05496ED91FC915597CE
:10083000808186FFF9CF91961C920895CF93DF9324
:10084000EC01EE85FF85E05CFF4F20813181E054B3
:10085000F0402F5F3F4F2F733070DF01AE5BBF4F13
:100860008D919C91119728173907D1F3E05CFF4FC8
:1008700080819181E054F040E80FF91F6083EE859C
:10088000FF85E05CFF4F31832083EE89FF89208163
:1008900081E090E00F8C02C0880F991F0A94E2F764
:1008A000282B208381E089A3EC89FD8980818064E5
:1008B000808381E090E0DF91CF9108951092EB0169
:1008C0001092EA0188EE93E0A0E0B0E08093EC01A2
:1008D0009093ED01A093EE01B093EF018BE191E0D5
:1008E0009093E9018093E80180E691E09093F5010F
:1008F0008093F40184EA91E09093F7018093F601EC
:1009000085EC90E09093F9018093F80184EC90E0FD
:100910009093FB018093FA0180EC90E09093FD01AD
:100920008093FC0181EC90E09093FF018093FE01A5
:1009300082EC90E0909301028093000286EC90E0BC
:10094000909303028093020284E08093040283E088
:100950008093050287E08093060285E0809307027A
:1009600081E0809308020895CF92DF92EF92FF9288
:100970000F931F93CF93DF937C016B018A01C0E03B
:10098000D0E00FC0D6016D916D01D701ED91FC91C2
:100990000190F081E02DC7010995C80FD91F0150C2
:1009A00010400115110571F7CE01DF91CF911F9114
:1009B0000F91FF90EF90DF90CF900895FF920F93EB
:1009C0001F93CF93DF93EC01FC80E881F981A08134
:1009D000B1812D913C91CF0166E0F9010995E88143
:1009E000F981A081B1812D913C91CF0165E8F90198
:1009F0000995E881F981A081B1812D913C91CF01C8
:100A00006C81F901099500E010E010C0EA81FB81DA
:100A1000E00FF11F6081F626ED91FC911197019096
:100A2000F081E02DCD0109950F5F1F4F8C8190E083
:100A3000A881B981081719074CF3ED91FC91119722
:100A40000190F081E02DCD016F2D0995DF91CF91BF
:100A50001F910F91FF9008950F931F938C01842F86
:100A6000F8017383628344833183208390E00E9482
:100A70000E07F801858396831F910F9108951F92A9
:100A80000F920FB60F9211242F933F938F939F9342
:100A9000AF93BF9380910E0290910F02A09110022C
:100AA000B0911102309112020196A11DB11D232FA8
:100AB0002D5F2D3720F02D570196A11DB11D2093DC
:100AC000120280930E0290930F02A0931002B09333
:100AD000110280910A0290910B02A0910C02B09138
:100AE0000D020196A11DB11D80930A0290930B0285
:100AF000A0930C02B0930D02BF91AF919F918F9183
:100B00003F912F910F900FBE0F901F9018958FB7A8
:100B1000F89420910E0230910F02409110025091F2
:100B200011028FBFB901CA0108959B01AC017FB7C3
:100B3000F89480910A0290910B02A0910C02B0915E
:100B40000D0266B5A89B05C06F3F19F00196A11D67
:100B5000B11D7FBFBA2FA92F982F8827860F911D0F
:100B6000A11DB11D62E0880F991FAA1FBB1F6A95C6
:100B7000D1F7BC012DC0FFB7F89480910A02909183
:100B80000B02A0910C02B0910D02E6B5A89B05C026
:100B9000EF3F19F00196A11DB11DFFBFBA2FA92F7C
:100BA000982F88278E0F911DA11DB11DE2E0880F9F
:100BB000991FAA1FBB1FEA95D1F7861B970B885E6A
:100BC0009340C8F2215030404040504068517C4F23
:100BD000211531054105510571F60895019739F048
:100BE000880F991F880F991F02970197F1F70895B1
:100BF000789484B5826084BD84B5816084BD85B5F8
:100C0000826085BD85B5816085BDEEE6F0E08081BE
:100C100081608083E1E8F0E01082808182608083DF
:100C2000808181608083E0E8F0E080818160808362
:100C3000E1EBF0E0808184608083E0EBF0E0808194
:100C400081608083EAE7F0E0808184608083808136
:100C500082608083808181608083808180688083DE
:100C60001092C1000895CF93DF93482F50E0CA013E
:100C700086569F4FFC0134914A575F4FFA01849189
:100C8000882369F190E0880F991FFC01E859FF4F14
:100C9000A591B491FC01EE58FF4FC591D491662304
:100CA00051F42FB7F8948C91932F909589238C93BE
:100CB000888189230BC0623061F42FB7F8948C913E
:100CC000932F909589238C938881832B88832FBFC2
:100CD00006C09FB7F8948C91832B8C939FBFDF91B4
:100CE000CF9108958F929F92AF92BF92CF92DF9251
:100CF000EF92FF920F931F93CF93DF93A82FB0E053
:100D0000CD0186569F4FFC018490AA57BF4FFD012D
:100D10008491662311F4992401C0982C6FEFA62EBC
:100D20006FEFB62E6FEFC62E6FE0D62EA222B32243
:100D3000C422D522682F70E0660F771F64587F4F5A
:100D4000EE24FF248701FB01A591B4910BC0EA14A6
:100D5000FB040C051D0509F44EC00894E11CF11CB0
:100D6000011D111D8C918821891589F30CC0EA148D
:100D7000FB040C051D0509F43EC00894E11CF11CA0
:100D8000011D111D03C0FB01A591B4918C91882117
:100D9000891569F720E030E040E050E0FB01C591A3
:100DA000D4910FC0DA01C9018E0D9F1DA01FB11F84
:100DB0008A159B05AC05BD05F1F02F5F3F4F4F4FE6
:100DC0005F4F88818821891569F3CA01B90125E13E
:100DD00030E040E050E00E9443089B01AC01205FFE
:100DE0003F4F4F4F5F4F84E0569547953795279576
:100DF0008A95D1F704C020E030E040E050E0B9012E
:100E0000CA01DF91CF911F910F91FF90EF90DF907A
:100E1000CF90BF90AF909F908F9008950F931F93A6
:100E2000CF93DF93BC018230910510F462E070E053
:100E3000E0911502F0911602A0E0B0E040E050E031
:100E400024C08081918186179707D0F08617970775
:100E500071F482819381109729F013969C938E935D
:100E600012972CC0909316028093150227C041154B
:100E7000510519F08417950718F4EF018D01AC01A5
:100E8000DF01828193819C01F9013097D1F64115F0
:100E90005105F9F0CA01861B970B8430910580F447
:100EA0008A819B810115110521F0F80193838283CA
:100EB00004C09093160280931502FE01329645C03D
:100EC000FE01E80FF91F619371930297998388835C
:100ED0003CC08091130290911402892B41F48091BF
:100EE0001301909114019093140280931302409186
:100EF0001501509116014115510541F44DB75EB7EA
:100F00008091110190911201481B590B20911302FD
:100F10003091140224173507B0F4CA01821B930BD9
:100F20008617970780F0AB014E5F5F4F84179507D8
:100F300050F0420F531F5093140240931302F901D3
:100F40006193719302C0E0E0F0E0CF01DF91CF91B7
:100F50001F910F910895CF93DF939C01009709F49F
:100F60008FC0EC0122971B821A826091150270914A
:100F700016026115710581F488819981820F931F92
:100F800020911302309114022817390739F5D093B4
:100F90001402C093130274C0DB0140E050E0AC17B0
:100FA000BD0708F1BB83AA83FE0121913191E20FB5
:100FB000F31FAE17BF0779F48D919C911197280FFD
:100FC000391F2E5F3F4F3983288312968D919C9154
:100FD00013979B838A834115510571F4D0931602B0
:100FE000C09315024DC012968D919C911397AD013F
:100FF000009711F0DC01D3CFDA011396DC93CE9386
:101000001297FA0121913191E20FF31FCE17DF07FA
:1010100069F488819981280F391F2E5F3F4FFA01AB
:10102000318320838A819B8193838283E0E0F0E097
:10103000DB0112968D919C911397009719F0BC01DA
:10104000FD01F6CFAB014E5F5F4FDB018D919C91AF
:10105000840F951F2091130230911402281739072D
:1010600079F4309729F4109216021092150202C0FA
:101070001382128242505040509314024093130244
:10108000DF91CF910895629FD001739FF001829FFD
:10109000E00DF11D649FE00DF11D929FF00D839F07
:1010A000F00D749FF00D659FF00D9927729FB00DA4
:1010B000E11DF91F639FB00DE11DF91FBD01CF01B7
:1010C0001124089597FB092E07260AD077FD04D036
:1010D0002ED006D000201AF4709561957F4F0895A8
:1010E000F6F7909581959F4F0895A1E21A2EAA1BBD
:1010F000BB1BFD010DC0AA1FBB1FEE1FFF1FA217C8
:10110000B307E407F50720F0A21BB30BE40BF50BC4
:10111000661F771F881F991F1A9469F7609570954D
:10112000809590959B01AC01BD01CF010895AA1B4C
:10113000BB1B51E107C0AA1FBB1FA617B70710F0C2
:10114000A61BB70B881F991F5A95A9F780959095F4
:10115000BC01CD010895EE0FFF1F0590F491E02D25
:061160000994F894FFCF92
:101166007017F4010000F4010000F4010000010111
:1011760001800017020000000000001E04B404B144
:0811860003E503C5030E04009C
:040000050080010274
:00000001FF
