:100000000C94F9150C9426160C9426160C942616AE
:100010000C9426160C9426160C9426160C94261670
:100020000C9426160C94944F0C94C24F0C94F04FE1
:100030000C9426160C9426160C9426160C94261650
:100040000C9426160C9426160C9426160C94261640
:100050000C9426160C9426160C9426160C94F38CED
:100060000C9426160C94E2450C943A470C942616F0
:100070000C9426160C9426160C9426160C94261610
:100080000C9426160C9426160C9426160C94261600
:100090000C9422460C9479470C9426160C94261640
:1000A0000C9426160C9426160C9426160C942616E0
:1000B0000C9426160C9426160C9426160C942616D0
:1000C0000C9426160C9426160C9426160C94624654
:1000D0000C94B8470C9426160C94A2460C94F7473F
:1000E0000C942616A45BCA5BFB5B8F5C8F5C8F5CF9
:1000F000155CCD5CA45BCD5C3F5CCD5C525C525C1E
:10010000795C795CFB5B8F5C8F5CFB5B525CCD5CEC
:100110008F5CAC5CCD5CCD5CCD5CCD5CCD5CF85CCB
:100120003C67D868F569E96A266C266C016E696FD0
:1001300078747670D0713D7205760E77BF78BF788F
:10014000F569C079C079F569E1771B7BBB6CE47B0D
:10015000B37CB97EE07D727FBB801A8205A84CCD4E
:10016000B2D44EB93836A9020C50B9918688083CF1
:10017000A6AAAA2ABE000000803F000000000000DE
:100180000FFFFFFE00000000000000000000000064
:10019000000000000000000000000000000000005F
:1001A0000000000000000000000000000000001F30
:1001B000FFFFFE0000001FFFFFFFFFFFFFFFFFFF2D
:1001C000FFFFFFFFFFFFFFFFFFFFFFFFFFFFF0004D
:1001D00000000FFFFFFFE0000000000000001FFF15
:1001E000FFFC0000001FFFFFFFFFFFFFFFFFFFFFFF
:1001F000FFFFFFFFFFFFFFFFFFFFFFFFFFF000001C
:10020000000FFFFFFFE0000000000000003FFFFFC5
:10021000FC000000380000000000000000001FFF8C
:10022000FFFFFFFFFFFFFFFFFFFFFFFFE0000000FA
:100230001FFFFFFFC0000000000000007FFFFFF86D
:10024000000000780000000000000000001FFFFF19
:10025000FF80000000000000000000E00000003F00
:10026000FFFFFF80000000000000007FFFFFF8009C
:100270000000700000000000000000003FFFFFFFD2
:1002800080000000000000000001C00000003FFFEF
:10029000FFFF8000000000000000FFFFFFF80000EB
:1002A00000E00000000000000000003FFFFFFF0032
:1002B000000000000000000001C00000007FFFFF00
:1002C000FF0000000000000000FFFFFFF000000042
:1002D000E00000000000000000007FFFFFFF0000C2
:1002E0000000000000000003800000007FFFFFFF0F
:1002F0000000000000000001FFFFFFE0000001C05F
:100300000000000000000000007FFFFFFE00000072
:100310000000000000000780000000FFFFFFFE005B
:1003200000000000000003FFFFFFE0000003C0002A
:100330000000000000000000FFFFFFFC00000000C4
:1003400000000000000700000001FFFFFFFE0000AA
:10035000000000000003FFFFFFC00000038000005A
:1003600000000000000001FFFFFFFC000000000093
:10037000000000000E00000001FFFFFFFC00000075
:100380000000000007FFFFFFC000000700000000A2
:10039000000000000001FFFFFFF800000000000067
:1003A0000000000C00000003FFFFFFFC0000000045
:1003B00000000007FFFFFF800000070000000000B2
:1003C0000000000003FFFFFFF80000000000000035
:1003D00000001C00000007FFFFFFF8000000000005
:1003E00000000FFFFFFF0000000E000000000000F3
:1003F00000000003FFFFFFF000000000000000000D
:10040000003800000007FFFFFFF0000000000000C0
:10041000000FFFFFFF0000000E00000000000000C2
:10042000000007FFFFFFE0000000000000000000E8
:10043000380000000FFFFFFFF00000000000000088
:100440001FFFFFFE0000001C000000000000000075
:10045000000FFFFFFFE00000000000000000007040
:100460000000000FFFFFFFE0000000000000003F61
:10047000FFFFFE0000003C0000003FFFFF00000007
:100480000FFFFFFFC0000001FFFFF0000000600051
:1004900000001FFFFFFFE0000000000000003FFF22
:1004A000FFFC000000380000007FFFFE0000001F7E
:1004B000FFFFFFC0000003FFFFF0000000E00000AE
:1004C000003FFFFFFFC0000000000000007FFFFFB3
:1004D000FC000000700000007FFFFC0000001FFF18
:1004E000FFFF80000007FFFFE0000001C0000000E8
:1004F0003FFFFFFF80000000000000007FFFFFF8CB
:1005000000000070000000E0003C0000003FFFFF22
:10051000FF800000070001C0000001C00000007F54
:10052000FFFFFF8000000000000000FFFFFFF00061
:100530000000E0000001C000380000007FFFFFFF66
:100540000000000E0003C0000003800000007FFFD9
:10055000FFFF0000000000000001FFFFFFF00000AF
:1005600001E0000001C000700000007FFFFFFE00FE
:1005700000000C00038000000700000000FFFFFFE8
:10058000FE0000000000000001FFFFFFE00000018E
:10059000C0000003800070000000FFFFFFFE0000AD
:1005A000001C00078000000700000001FFFFFFFEA5
:1005B0000000000000000003FFFFFFE000000380D8
:1005C0000000038000E0000001FFFFFFFC000000CE
:1005D0003800070000000E00000001FFFFFFFC00D4
:1005E00000000000000003FFFFFFC00000038000C8
:1005F00000070001E0000001FFFFFFFC00000038E1
:10060000000E0000000C00000003FFFFFFFC0000D4
:10061000000000000007FFFFFF800000070000004F
:100620000E0001C0000003FFFFFFF8000000700093
:100630001E0000001C00000007FFFFFFF800000084
:100640000000000007FFFFFF800000070000000E11
:10065000000380000003FFFFFFF000000060001CAB
:100660000000003800000007FFFFFFF0000000005E
:100670000000000FFFFFFFFFFFFFCE0000001C0087
:100680000380000007FFFFFFF0000000E0003C00D7
:100690000000380000000FFFFFFFF0000000000026
:1006A00000000003FFFFFFFFFFDC0000001C00074D
:1006B0000000000FFFFFFFE0000001C00078000015
:1006C0000073FFFFFFFFFFFFFFE0000000000000DE
:1006D0000000000007FFFFFF9C00000038000F0033
:1006E00000000FFFFFFFE0000001C00070000000ED
:1006F00067FFFFFFF003FFFFC000000000000000E5
:1007000000000007FFFFFFB800000038000E0000E7
:10071000001FFFFFFFC00000038000F0000000EF9B
:10072000FFFFFFE0000000000000000000000000EC
:1007300000000FFFFFFF3800000070001C000000E9
:100740001FFFFFFF800000038000E0000001CFFFDB
:10075000FFFFE000000000000000000000000000BB
:10076000001FFFFFFF70000000E0001C0000003FC2
:10077000FFFFFF800000070001E0000001DFFFFF36
:10078000FFC00000000000000000000000000000AA
:100790001FFFFFFFF0000000E000380000007FFFB7
:1007A000FFFF000000060003C0000003BFFFFFFFC3
:1007B0008000000000000000000000000000001F9A
:1007C000FFFFFFE0000001C000780000007FFFFF96
:1007D000FF0000000E0003800000033FFFFFFF80CA
:1007E00000000000000000000000000000003FFFCB
:1007F000FFFFC0000001C00070000000FFFFFFFE0F
:100800000000001C0007800000077FFFFFFF800042
:10081000000000000000000000000000003FFFFF9B
:10082000FFC00000038000E0000000FFFFFFFE00AB
:1008300000001C00070000000E7FFFFFFF0000000B
:100840000000000000000000000000007FFFFFFF2C
:10085000800000070001E0000001FFFFFFFC000036
:100860000038000E0000000CFFFFFFFE000000003B
:1008700000000000000000000000007FFFFFFF807C
:100880000000070001C0000003FFFFFFF8000000A8
:1008900038001E0000001DFFFFFFFE0000000000EA
:1008A00000000000000000000000FFFFFFFF00004C
:1008B000000FFFFFC0000003FFFFFFF80000007FF4
:1008C000FFFC00000039FFFFFFFC000000000000FB
:1008D000000000000000000001FFFFFFFE0000001C
:1008E0000FFFFF80000007FFFFFFF0000000FFFF89
:1008F000FC0000003BFFFFFFFC00000000000000C8
:100900000000000000000001FFFFFFFE00000000EB
:10091000000000000007FFFFFFF0000000FFFFF8ED
:1009200000000077FFFFFFF800000000000000005B
:1009300000000000000003FFFFFFFC0000000000BB
:10094000000000000FFFFFFFE000000000000000BB
:10095000000067FFFFFFF000000000000000000043
:10096000000000000003FFFFFFFC0000000000008B
:100970000000001FFFFFFFC000000000000000009B
:1009800000EFFFFFFFF0000000000000000000008B
:100990000000000007FFFFFFF8000000000000005B
:1009A00000001FFFFFFFC00000000000000000016A
:1009B000CFFFFFFFE000000000000000000000008B
:1009C0000000000FFFFFFFF8000000000000000023
:1009D000003FFFFFFF80000000000000000001DF7B
:1009E000FFFFFFE00000000000000000000000002A
:1009F00000000FFFFFFFF0000000000000000000FB
:100A00003FFFFFFF80000000000000000003BFFF69
:100A1000FFFFC00000000000000000000000000018
:100A2000001FFFFFFFE00000000000000000007F4B
:100A3000FFFFFF000000000000000000033FFFFF79
:100A4000FF80000000000000000000000000000027
:100A50001FFFFFFFE0000000000000000000FFFF9C
:100A6000FFFE000000000000000000077FFFFFFF06
:100A70008000000000000000000000000000003FB7
:100A8000FFFFFFC0000000000000000000FFFFFFAC
:100A9000FE0000000000000000000E7FFFFFFF00CE
:100AA00000000000000000000000000000003FFF08
:100AB000FFFFC0000000000000000001FFFFFFFC7E
:100AC0000000000000000000000CFFFFFFFE00001F
:100AD000000000000000000000000000007FFFFF99
:100AE000FF80000000000000000003FFFFFFFC008B
:100AF00000000000000000001DFFFFFFFE000000DE
:100B0000000000000000000000000000FFFFFFFFE9
:100B100000000000000000000003FFFFFFF80000DD
:100B20000000000000000019FFFFFFFC00000000B3
:100B30000000000000000000000000FFFFFFFF00B9
:100B4000000000000000000007FFFFFFF8000000A9
:100B50000000000000003BFFFFFFFC000000000061
:100B600000000000000000000001FFFFFFFE000089
:100B7000000FF00000003FFFFFFFFFF0000000FF4C
:100B800000000001FFF7FFFFFFF800000000000079
:100B900000000000000FFFFFFFFFFFFFFE0000004E
:100BA0001FF00000003FFFFFFFFFE0000000FF809C
:100BB000000001FFF7FFFFFFFFFE00000000000044
:100BC000000000001FFFFFFE0000003C0000003F8F
:100BD000F80000001FFFFFFFFFE0000001FF8000A2
:100BE0000001FFFFFFFFFFFFFFFFFF80000000008D
:100BF0000000001FFFFFFE0000003C00000038382E
:100C00000000001FFFFFFFFFC00000038380000003
:100C100001C0000000007FFFFFFF00000000000097
:100C200000003FFFFFFC000000780000007038006B
:100C300000001FFFFFFFFFC000000383C000000093
:100C4000C000000000FFFFFFFF00000000000000E8
:100C5000003FFFFFF8000000700000007038000047
:100C6000001FFFFFFFFF8000000701C0000000C061
:100C700000000001FFFFFFFE000000000000000078
:100C80007FFFFFF8000000F0000000E03C000000E3
:100C90000FFFFFFFFF0000000601C0000000C000C2
:100CA000000001FFFFFFFC00000000000000007FCB
:100CB000FFFFF8000000E0000001C01C0000000F72
:100CC000FFFFFFFF0000000E01C0000000E0000079
:100CD0000003FFFFFFFC0000000000000000FFFF1A
:100CE000FFF0000000E0000001C01C0000000FFF4A
:100CF000FFFFFE0000001C01E0000000600000009B
:100D000003FFFFFFFC0000000000000001FFFFFFE9
:100D1000F0000001C0000003801C0000000FFFFF76
:100D2000FFFE0000001C01E0000000600000000366
:100D3000FFFFFFF80000000000000001FFFFFFE0E0
:100D400000000380000003801E00000007FFFFFF7B
:100D5000FC0000003800E00000007000000007FF09
:100D6000FFFFF00000000000000003FFFFFFC000D5
:100D7000000380000007000E00000007FFFFFFF8DF
:100D80000000003800E0000000700000000FFFFFCE
:100D9000FFF00000000000000003FFFFFFC00000A4
:100DA0000700000006000E00000007FFFFFFF8002C
:100DB0000000700070000000300000000FFFFFFF17
:100DC000E00000000000000007FFFFFF80000007B8
:100DD0000000000E000F00000003FFFFFFF0000006
:100DE00000600070000000300000001FFFFFFFE007
:100DF000000000000000000FFFFFFF8000000E0059
:100E000000001C000700000003FFFFFFF0000000CF
:100E1000E00070000000380000001FFFFFFFC0006E
:100E20000000000000000FFFFFFF0000001E000098
:100E3000001C000700000003FFFFFFE0000001C0EE
:100E40000038000000180000003FFFFFFF80000096
:100E500000000000001FFFFFFF0000001C0000005A
:100E600038000700000003FFFFFFE0000001C000A2
:100E700038000000180000007FFFFFFF8000000026
:100E8000000000001FFFFFFE0000003800000038D7
:100E9000000380000001FFFFFFC000000380003856
:100EA000000000180000007FFFFFFF0000000000AE
:100EB0000000003FFFFFFC00000038000000700051
:100EC0000380000001FFFFFF8000000300003800E6
:100ED00000001C000000FFFFFFFF000000000000FA
:100EE00000007FFFFFFC00000070000000E0000336
:100EF00080000001FFFFFF8000000700001C0000D1
:100F0000000C000001FFFFFFFE00000000000000D9
:100F1000007FFFFFF8000000F0000000E000038009
:100F2000000001FFFFFF0000000E00001C00000099
:100F30000C000001FFFFFFFC0000000000000000AB
:100F4000FFFFFFF8000000E0000001C00001C0004A
:100F50000000FFFFFF0000000E00001C0000000E5C
:100F6000000003FFFFFFFC0000000000000000FF86
:100F7000FFFFF0000001C0000001C00001C0000040
:100F800000FFFFFE0000001C00001C0000000E001F
:100F90000003FFFFFFF80000000000000001FFFF5A
:100FA000FFF0000001C0000003800001C00000004D
:100FB000FFFFFC0000001800000E0000000600000B
:100FC00007FFFFFFF80000000000000001FFFFFF27
:100FD000E000000380000007000001E0000000FFC7
:100FE000FFFC0000003800000E0000000600000FAB
:100FF000FFFFFFF00000000000000003FFFFFFC044
:1010000000000380000007000000E00000007FFFF8
:10101000F80000007000000E0000000700000FFF45
:10102000FFFFE00000000000000007FFFFFFC0001E
:1010300000070000000E000000E00000007FFFF845
:10104000000000700000070000000700001FFFFF05
:10105000FFE00000000000000007FFFFFF8000002D
:101060000FFFFFFFFE000000FFFFFFFFFFFFFFFF7E
:10107000FFFFE0000007FFFFFFFF00001FFFFFFF73
:10108000C0000000000000000FFFFFFF8000000F05
:10109000FFFFFFFC0000007FFFFFFFFFFFFFFFFFE0
:1010A000FFE0000007FFFFFFFF80003FFFFFFF8022
:1010B000000000000000000001FFFF0000000FFF23
:1010C000FFFFF80000007FFFFFFFFFFFFFBFFFFFF4
:1010D000C0000002DFFFFFFF00007FFFFFFF800076
:1010E0000000000000000000000000000000000000
:1010F00000000000000000000000400000000000B0
:10110000000000000000000000000FFFFF000000D2
:1011100000000000000000000000000000000000CF
:1011200000000000000000000000000000000000BF
:1011300000000000000000000000000000000000AF
:10114000000000000000000000000000000000009F
:10115000000000000000000000000000000000008F
:10116000000000000000000000000000000000007F
:10117000000000000000000000000000000000006F
:10118000000000000000000000000000000000005F
:10119000000000000000000000000000000000004F
:1011A000000000000000000000000000000000003F
:1011B000000000000000000000000000000000002F
:1011C000000000000000000000000000000000001F
:1011D000000000000000000000000000000000000F
:1011E00000000000000000000000000000000000FF
:1011F00000000000000000000000000000000000EF
:1012000000C201000100110011000C0000E100000B
:101210000A00250025002100009600001900390071
:1012200039003600127A00001F00460046004400D4
:101230008070000022004D004D004A00004B00006D
:101240003600750075007200403800004A009C00AE
:101250009C009900802500007200EC00EC00E90081
:10126000C0120000E900DA01DA01D70160090000CC
:10127000D701B603B603B303B0040000B3036E078F
:101280006E076B07580200006E07DC0EDC0ED80EEE
:101290002C010000DC0EC11DC11DBE1D080C205F0D
:1012A00000000000000000000000000000002020FE
:1012B00020202020002000000028505000000000C6
:1012C0000000000000002828FC2850FC50500000BE
:1012D000002078A8A0603028A8F02000000048A8CE
:1012E000B050283454480000000020505078A8A87E
:1012F000906C0000004040800000000000000000F2
:1013000000040810101010101008040000402010F5
:10131000101010101020400000000020A87070A8CD
:10132000200000000000202020F8202020000000E5
:1013300000000000000000000040408000000000AD
:1013400000F80000000000000000000000000000A5
:101350000040000000081010102020404040800095
:1013600000007088888888888870000000002060ED
:10137000202020202070000000007088881020406D
:1013800080F80000000070880830080888700000AD
:101390000000103050509078101800000000F880C5
:1013A00080F00808887000000000709080F0888845
:1013B000887000000000F8901020202020200000FD
:1013C000000070888870888888700000000070882D
:1013D00088887808487000000000000020000000A5
:1013E000002000000000000000200000002020007D
:1013F0000004081020402010080400000000000035
:10140000F80000F800000000004020100804081058
:10141000204000000000708888102020002000007C
:101420000000708898A8A8B88078000000002020EC
:101430003050507848CC00000000F04848704848D0
:1014400048F000000000788880808080887000006C
:101450000000F0484848484848F000000000F848BC
:101460005070504048F800000000F848507050405C
:1014700040E000000000384880809C884830000030
:101480000000CC484878484848CC00000000F820CC
:101490002020202020F8000000007C1010101010E8
:1014A0001090E0000000EC485060505048EC000004
:1014B0000000E0404040404044FC00000000D8D81C
:1014C000D8D8A8A8A8A800000000DC486868585828
:1014D00048E80000000070888888888888700000CC
:1014E0000000F0484870404040E000000000708874
:1014F000888888E8987018000000F04848705048C4
:1015000048EC0000000078888060100888F0000037
:101510000000F8A820202020207000000000CC4807
:1015200048484848483000000000CC4848505030F7
:10153000202000000000A8A8A870505050500000C3
:101540000000D8505020205050D800000000D85043
:1015500050202020207000000000F8901020204033
:1015600048F80000003820202020202020203800CB
:1015700000404040202010101008000000701010A3
:10158000101010101010700000205000000000001B
:10159000000000000000000000000000000000FC4F
:1015A000002000000000000000000000000000001B
:1015B00000304838483C00000000C04040704848B7
:1015C000487000000000000000384840403800002B
:1015D0000000180808384848483C00000000000097
:1015E000003048784038000000001C20207820207F
:1015F0002078000000000000003C4830407844386B
:101600000000C0404070484848EC00000000200046
:10161000006020202070000000001000003010103A
:10162000101010E00000C040405C507048EC00001A
:101630000000E0202020202020F800000000000012
:1016400000F0A8A8A8A800000000000000F048488A
:1016500048EC00000000000000304848483000001E
:101660000000000000F04848487040E00000000022
:10167000003848484838081C0000000000D8604086
:1016800040E00000000000000078403008780000D2
:101690000000002020702020201800000000000022
:1016A00000D84848483C00000000000000EC4850CA
:1016B000302000000000000000A8A870505000007A
:1016C0000000000000D8502050D8000000000000AA
:1016D00000EC4850302020C00000000000781020AE
:1016E00020780000001810101020101010101800A2
:1016F000101010101010101010101010006020208A
:10170000201020202020600040A4180000000000CD
:10171000000000001010205F00000000000000002A
:1017200000000000000000000000000000000000B9
:1017300000000000000000000000000007000F8013
:101740000F800F800F800F8007000700000000004F
:10175000070007000700000000000E380E380E38A2
:101760000E380630000000000000000000000000FD
:10177000000000000000000000000C300C300C30B5
:101780007FFE7FFE0C300C300C300C307FFE7FFE75
:101790000C300C300C3000000000024002400FF80A
:1017A0001FF81A401A401FF00FF8025802581FF88D
:1017B0001FF00240024000000000000000000E1078
:1017C0000E300E7000E001C0038007000E700C7038
:1017D0000870000000000000000000000F001980E9
:1017E000198019800F000F080F9819F818F018E0E9
:1017F00019F00F980000000000000000070007002B
:1018000007000E00000000000000000000000000C3
:1018100000000000000000000000000000F001C017
:10182000038007000E000E000E000E00070003806C
:1018300001C000F000000000000000000F00038065
:1018400001C000E0007000700070007000E001C096
:1018500003800F00000000000000000001801188DC
:10186000099007E007E03FFC3FFC07E007E0099034
:10187000118801800000000000000000000000004E
:101880000180018001800FF00FF001800180018054
:101890000000000000000000000000000000000048
:1018A0000000000000000000000000000000070031
:1018B000070007000E00000000000000000000000C
:1018C0000000000000001FF81FF8000000000000EA
:1018D0000000000000000000000000000000000008
:1018E00000000000000000000000000000000700F1
:1018F00007000700000000000000000000020006D2
:10190000000E001C0038007000E001C003800700DA
:101910000E001C0000000000000000000FF01C384A
:101920001C781CF81CF81DB81DB81F381F381E384D
:101930001C380FF000000000000000000180018052
:1019400003801F801F800380038003800380038047
:1019500003801FF000000000000000000FE01C707A
:101960001C380038007000E001C0038007000E380A
:101970001C381FF800000000000000000FE01C7081
:101980001C380038007003C003C0007000381C38D9
:101990001C700FE0000000000000000000E001E00B
:1019A00003E006E00CE018E01FF81FF800E000E09C
:1019B00000E003F800000000000000001FF81C0019
:1019C0001C001C001C001FE01FF0007800381C38B1
:1019D0001C700FE0000000000000000003E00700A2
:1019E0000E001C001C001FF01FF81C381C381C388F
:1019F0001C380FF000000000000000001FFC1C1C41
:101A00001C1C1C1C001C0038007000E001C003807E
:101A10000380038000000000000000000FF01C386D
:101A20001C381C381F3807E007E01CF81C381C382D
:101A30001C380FF000000000000000000FF01C3800
:101A40001C381C381C381FF80FF80038003800709C
:101A500000E007C0000000000000000000000000DF
:101A60000380038003800000000003800380038064
:101A70000000000000000000000000000000000066
:101A80000380038003800000000003800380038044
:101A900007000000000000000000007000E001C02E
:101AA000038007000E001C001C000E0007000380CE
:101AB00001C000E000700000000000000000000015
:101AC00000003FFC3FFC000000003FFC3FFC00002A
:101AD000000000000000000000001C000E000700D5
:101AE000038001C000E00070007000E001C00380CE
:101AF00007000E001C000000000003C00FF01E785D
:101B000018380038007000E001C001C0000000007B
:101B100001C001C001C0000000000FF81C1C1C1C0B
:101B20001C1C1C1C1CFC1CFC1CFC1CFC1C001C00AD
:101B30001C001FF007F800000000000003C007E0D1
:101B40000E701C381C381C381C381FF81C381C3808
:101B50001C381C3800000000000000001FF00E3888
:101B60000E380E380E380FF00FF00E380E380E38D3
:101B70000E381FF0000000000000000007F00E38D3
:101B80001C381C001C001C001C001C001C001C3805
:101B90000E3807F000000000000000001FE00E708B
:101BA0000E380E380E380E380E380E380E380E3805
:101BB0000E701FE000000000000000001FF80E186B
:101BC0000E080E000E300FF00FF00E300E000E0853
:101BD0000E181FF800000000000000001FF80E188B
:101BE0000E080E000E300FF00FF00E300E000E003B
:101BF0000E001F00000000000000000007F00E387B
:101C00001C381C381C001C001C001CF81C381C381C
:101C10000E3807F800000000000000001C701C7067
:101C20001C701C701C701FF01FF01C701C701C704E
:101C30001C701C7000000000000000000FE003801A
:101C4000038003800380038003800380038003807C
:101C500003800FE0000000000000000001FC0070A5
:101C6000007000700070007000703870387038704C
:101C700038700FE000000000000000001E380E3831
:101C80000E700EE00FC00F800F800FC00EE00E70C0
:101C90000E381E3800000000000000001F000E007B
:101CA0000E000E000E000E000E000E000E080E18A4
:101CB0000E381FF800000000000000001C1C1E3C35
:101CC0001F7C1FFC1FFC1DDC1C9C1C1C1C1C1C1CEA
:101CD0001C1C1C1C00000000000000001C1C1C1C24
:101CE0001E1C1F1C1F9C1DDC1CFC1C7C1C3C1C1C8B
:101CF0001C1C1C1C000000000000000003E007F09A
:101D00000E381C1C1C1C1C1C1C1C1C1C1C1C0E38F7
:101D100007F003E000000000000000001FF00E3894
:101D20000E380E380E380FF00FF00E000E000E00B9
:101D30000E001F00000000000000000003E00F780C
:101D40000E381C1C1C1C1C1C1C1C1C7C1CFC0FF8B6
:101D50000FF8003800FC0000000000001FF00E38F3
:101D60000E380E380E380FF00FF00E700E380E3899
:101D70000E381E3800000000000000000FF01C3874
:101D80001C381C381C000FE007F000381C381C38C9
:101D90001C380FF000000000000000001FFC19CCF0
:101DA00011C401C001C001C001C001C001C001C017
:101DB00001C007F000000000000000001C701C7053
:101DC0001C701C701C701C701C701C701C701C70B3
:101DD0001C700FE000000000000000001C701C7070
:101DE0001C701C701C701C701C701C701C700EE031
:101DF00007C0038000000000000000001C1C1C1C29
:101E00001C1C1C1C1C1C1C9C1C9C1C9C0FF80FF8F4
:101E10000770077000000000000000001C701C70BC
:101E20001C700EE007C00380038007C00EE01C702A
:101E30001C701C7000000000000000001C701C7072
:101E40001C701C701C700EE007C0038003800380B0
:101E500003800FE000000000000000001FF81C38A5
:101E60001838107000E001C0038007000E081C182D
:101E70001C381FF8000000000000000007F00700F9
:101E8000070007000700070007000700070007001A
:101E9000070007F00000000000000000100018001C
:101EA0001C000E000700038001C000E00070003835
:101EB000001C0007000000000000000007F0007098
:101EC0000070007000700070007000700070007092
:101ED000007007F0000000000000018003C007E070
:101EE0000E701C3800000000000000000000000020
:101EF00000000000000000000000000000000000E2
:101F000000000000000000000000000000000000D1
:101F1000000000007FFF7FFF000000001C001C008D
:101F200007000700000000000000000000000000A3
:101F300000000000000000000000000000000000A1
:101F4000000000000FE0007000700FF01C701C70AB
:101F50001C700FD800000000000000001E000E00E2
:101F60000E000E000FF00E380E380E380E380E38F8
:101F70000E381BF000000000000000000000000010
:101F8000000000000FE01C701C701C001C001C7086
:101F90001C700FE0000000000000000000F800705E
:101FA000007000700FF01C701C701C701C701C7096
:101FB0001C700FD8000000000000000000000000AE
:101FC000000000000FE01C701C701FF01C001C7053
:101FD0001C700FE0000000000000000003E007702C
:101FE0000770070007001FE01FE007000700070059
:101FF00007001FC0000000000000000000000000FB
:10200000000000000FD81C701C701C701C700FF0BA
:1020100007F000701C700FE0000000001E000E00B2
:102020000E000E000EF00F380F380E380E380E3836
:102030000E381E38000000000000000001C001C082
:1020400001C000000FC001C001C001C001C001C03B
:1020500001C00FF8000000000000000000700070D8
:102060000070000003F000700070007000700070DD
:1020700000701C700CF007E0000000001E000E0055
:102080000E000E000E380E700EE00FC00EE00E7047
:102090000E381E3800000000000000000FC001C014
:1020A00001C001C001C001C001C001C001C001C028
:1020B00001C00FF800000000000000000000000058
:1020C000000000001FF81C9C1C9C1C9C1C9C1C9C61
:1020D0001C9C1C9C00000000000000000000000090
:1020E000000000001FE01C701C701C701C701C7035
:1020F0001C701C70000000000000000000000000C8
:10210000000000000FE01C701C701C701C701C7024
:102110001C700FE000000000000000000000000044
:10212000000000001BF00E380E380E380E380E3846
:102130000FF00E000E001F00000000000000000065
:10214000000000001FB038E038E038E038E038E048
:102150001FE000E000E001F00000000000000000CF
:10216000000000001EF00FF80F380E000E000E00E9
:102170000E001F0000000000000000000000000032
:10218000000000000FE01C301C300F8003E01870CE
:1021900018700FE0000000000000000000000100C7
:1021A000030007001FF00700070007000700077083
:1021B000077003E0000000000000000000000000C5
:1021C000000000001C701C701C701C701C701C70C7
:1021D0001C700FD80000000000000000000000008C
:1021E000000000001C701C701C701C701C700EE045
:1021F00007C0038000000000000000000000000095
:10220000000000001C1C1C1C1C1C1C9C1C9C0FF8AF
:1022100007700770000000000000000000000000D0
:10222000000000001CE01CE00FC0078007800FC00A
:102230001CE01CE0000000000000000000000000A6
:10224000000000000E380E380E380E380E3807F039
:1022500003E000E001C01F8000000000000000005B
:10226000000000001FE018E011C0038007000E20EE
:102270001C601FE0000000000000000001F8038067
:102280000380038007001C001C00070003800380FC
:10229000038001F800000000000001C001C001C07F
:1022A00001C001C001C001C001C001C001C001C026
:1022B00001C001C001C00000000000001F8001C07B
:1022C00001C001C000E00038003800E001C001C0DA
:1022D00001C01F8000000000000000001F1C3B9C8C
:1022E00039DC38F8000000000000000000000000A9
:1022F00000000000000000002032300A0000000052
:102300000000000000FFFE0001FFFF0003FFFF8050
:1023100001FFFF600CFFFEF01E0001F83F0001F816
:102320003F0001F83F0001F83F0001F83F0001F8CD
:102330003F0001F83F0001F83F0001F83F0001F8BD
:102340003F0001F83F0001F83F0001F83F0001F8AD
:102350003E0000783800001820000008000000004F
:1023600020000000380000183E0000783F0001F80F
:102370003F0001F83F0001F83F0001F83F0001F87D
:102380003F0001F83F0001F83F0001F83F0001F86D
:102390003F0001F83F0001F83F0001F83F0001F85D
:1023A0003F0001F81E0000F00CFFFE6001FFFF007F
:1023B00003FFFF8001FFFF0000FFFE0000000000A0
:1023C000000000000000000000000000000000000D
:1023D000000000000000000000000060000000F0AD
:1023E000000001F8000001F8000001F8000001F809
:1023F000000001F8000001F8000001F8000001F8F9
:10240000000001F8000001F8000001F8000001F8E8
:10241000000001F8000001F800000078000000183A
:10242000000000080000000000000000000000188C
:1024300000000078000001F8000001F8000001F839
:10244000000001F8000001F8000001F8000001F8A8
:10245000000001F8000001F8000001F8000001F898
:10246000000001F8000001F8000001F8000000F091
:1024700000000060000000000000000000000000FC
:10248000000000000000000000000000000000004C
:102490000000000000FFFE0001FFFF0003FFFF80BF
:1024A00001FFFF6000FFFEF0000001F8000001F8EE
:1024B000000001F8000001F8000001F8000001F838
:1024C000000001F8000001F8000001F8000001F828
:1024D000000001F8000001F8000001F8000001F818
:1024E0000000007801FFFE1803FFFF880FFFFFE0E8
:1024F00027FFFFC039FFFF003E0000003F00000043
:102500003F0000003F0000003F0000003F000000CF
:102510003F0000003F0000003F0000003F000000BF
:102520003F0000003F0000003F0000003F000000AF
:102530003F0000001E0000000CFFFE0001FFFF0036
:1025400003FFFF8001FFFF0000FFFE00000000000E
:1025500000000000000000000000000000FFFE007E
:1025600001FFFF0003FFFF8001FFFF6000FFFEF09F
:10257000000001F8000001F8000001F8000001F877
:10258000000001F8000001F8000001F8000001F867
:10259000000001F8000001F8000001F8000001F857
:1025A000000001F8000001F80000007801FFFE18AB
:1025B00003FFFF880FFFFFE007FFFFC001FFFF18C9
:1025C00000000078000001F8000001F8000001F8A8
:1025D000000001F8000001F8000001F8000001F817
:1025E000000001F8000001F8000001F8000001F807
:1025F000000001F8000001F8000001F8000000F000
:1026000000FFFE6001FFFF0003FFFF8001FFFF00EE
:1026100000FFFE00000000000000000000000000BD
:1026200000000000000000000000000000000000AA
:10263000000000600C0000F01E0001F83F0001F8EF
:102640003F0001F83F0001F83F0001F83F0001F8AA
:102650003F0001F83F0001F83F0001F83F0001F89A
:102660003F0001F83F0001F83F0001F83F0001F88A
:102670003E00007839FFFE1823FFFF880FFFFFE0C0
:1026800007FFFFC001FFFF1800000078000001F8FD
:10269000000001F8000001F8000001F8000001F856
:1026A000000001F8000001F8000001F8000001F846
:1026B000000001F8000001F8000001F8000001F836
:1026C000000001F8000000F00000006000000000C1
:1026D00000000000000000000000000000000000FA
:1026E00000000000000000000000000000FFFE00ED
:1026F00001FFFF0003FFFF8001FFFF000CFFFE0052
:102700001E0000003F0000003F0000003F000000EE
:102710003F0000003F0000003F0000003F000000BD
:102720003F0000003F0000003F0000003F000000AD
:102730003F0000003F0000003E00000039FFFE00A7
:1027400023FFFF800FFFFFE007FFFFC001FFFF181F
:1027500000000078000001F8000001F8000001F816
:10276000000001F8000001F8000001F8000001F885
:10277000000001F8000001F8000001F8000001F875
:10278000000001F8000001F8000001F8000000F06E
:1027900000FFFE6001FFFF0003FFFF8001FFFF005D
:1027A00000FFFE000000000000000000000000002C
:1027B0000000000000FFFE0001FFFF0003FFFF809C
:1027C00001FFFF000CFFFE001E0000003F000000A4
:1027D0003F0000003F0000003F0000003F000000FD
:1027E0003F0000003F0000003F0000003F000000ED
:1027F0003F0000003F0000003F0000003F000000DD
:102800003E00000039FFFE0023FFFF800FFFFFE0C6
:1028100027FFFFC039FFFF183E0000783F0001F896
:102820003F0001F83F0001F83F0001F83F0001F8C8
:102830003F0001F83F0001F83F0001F83F0001F8B8
:102840003F0001F83F0001F83F0001F83F0001F8A8
:102850003F0001F81E0000F00CFFFE6001FFFF00CA
:1028600003FFFF8001FFFF0000FFFE0000000000EB
:1028700000000000000000000000000000FFFE005B
:1028800001FFFF0003FFFF8001FFFF6000FFFEF07C
:10289000000001F8000001F8000001F8000001F854
:1028A000000001F8000001F8000001F8000001F844
:1028B000000001F8000001F8000001F8000001F834
:1028C000000001F8000001F8000000780000001886
:1028D00000000008000000000000000000000018D8
:1028E00000000078000001F8000001F8000001F885
:1028F000000001F8000001F8000001F8000001F8F4
:10290000000001F8000001F8000001F8000001F8E3
:10291000000001F8000001F8000001F8000000F0DC
:102920000000006000000000000000000000000047
:102930000000000000000000000000000000000097
:102940000000000000FFFE0001FFFF0003FFFF800A
:1029500001FFFF600CFFFEF01E0001F83F0001F8D0
:102960003F0001F83F0001F83F0001F83F0001F887
:102970003F0001F83F0001F83F0001F83F0001F877
:102980003F0001F83F0001F83F0001F83F0001F867
:102990003E00007839FFFE1823FFFF880FFFFFE09D
:1029A00027FFFFC039FFFF183E0000783F0001F805
:1029B0003F0001F83F0001F83F0001F83F0001F837
:1029C0003F0001F83F0001F83F0001F83F0001F827
:1029D0003F0001F83F0001F83F0001F83F0001F817
:1029E0003F0001F81E0000F00CFFFE6001FFFF0039
:1029F00003FFFF8001FFFF0000FFFE00000000005A
:102A000000000000000000000000000000FFFE00C9
:102A100001FFFF0003FFFF8001FFFF600CFFFEF0DE
:102A20001E0001F83F0001F83F0001F83F0001F8E7
:102A30003F0001F83F0001F83F0001F83F0001F8B6
:102A40003F0001F83F0001F83F0001F83F0001F8A6
:102A50003F0001F83F0001F83E00007839FFFE1802
:102A600023FFFF880FFFFFE007FFFFC001FFFF18F4
:102A700000000078000001F8000001F8000001F8F3
:102A8000000001F8000001F8000001F8000001F862
:102A9000000001F8000001F8000001F8000001F852
:102AA000000001F8000001F8000001F8000000F04B
:102AB00000FFFE6001FFFF0003FFFF8001FFFF003A
:102AC00000FFFE00000000000000000000002100E8
:102AD000240027002A002D003000330001010000EF
:102AE000040107010A0100002200250028002B0034
:102AF0002E003100340002010000050108010B0125
:102B0000000020002300260029002C002F003200A6
:102B1000000100000301060109010505050507057F
:102B200008080808020202020A0A08080404040449
:102B30000101010101010101030303030303030375
:102B4000040707070C0C0C0C0C0C0C0C0202020204
:102B500006060606060606060B0B0B0B0B0B0B0BED
:102B6000010210202008081020401020408002019F
:102B70000201080402010102040810204080804084
:102B80002010080402018004020180402010080483
:102B90000201080402010102040810204080010221
:102BA0000408102040800000090A02080B0C0D07E1
:102BB0000603040100000000000000000000000007
:102BC0000000000000000000000000000000000005
:102BD000000011100F0000000000000000000000C5
:102BE000000000000000000000000000E31A6A4935
:102BF000DC1A11241FBECFEFD1E2DEBFCDBF00E053
:102C00000CBF16E0A0E0B2E0EEE7F7E201E00BBF98
:102C100002C007900D92AC3BB107D9F71BBE10E183
:102C2000ACEBB6E001C01D92A93FB107E1F71BE292
:102C3000C0EFDBE204C02297FE010E947793CC3EF6
:102C4000D107C9F70E94D2450C94B2930C940000AE
:102C5000FB01DC0102C001900D9241505040D8F7B9
:102C60000895FB019F01E8944230C4F04532B4F46A
:102C70004A3029F497FB1EF4909581959F4F642F5D
:102C800077270E941193805D8A330CF0895D8193D0
:102C9000CB010097A1F716F45DE251931082C901B0
:102CA0000C945A18A0E0B0E0E8E5F6E10C948B93A0
:102CB000FE013696619171918091F5109091F61018
:102CC000AF010E9467162096E2E00C94A793ABE058
:102CD000B0E0EDE6F6E10C947B933C012B015A0148
:102CE000FC0117821682838181FD03C06FEF7FEFA5
:102CF000C6C19AE0892E1E010894211C311CF301E3
:102D00002381F20123FD859123FF81912F018823E7
:102D100009F4B2C1853239F423FD859123FF8191F5
:102D20002F01853229F490E0B3010E946A18E7CFA1
:102D3000982FFF24EE249924FFE1FF15D0F09B3259
:102D400069F09C3228F4903259F0933291F40EC01D
:102D50009D3249F0903369F441E024C052E0F52AF5
:102D600084E0F82A28C098E0F92A25C0E0E1FE2A8C
:102D700022C0F7FC29C0892F80538A3070F4F6FEF8
:102D800005C0989C902C1124980E15C0E89CE02C4E
:102D90001124E80EF0E2FF2A0EC09E3229F4F6FC60
:102DA0006BC140E4F42A07C09C3619F450E8F52AB8
:102DB00002C0983649F4F20123FD959123FF9191C9
:102DC0002F01992309F0B8CF892F8554833018F04B
:102DD0008052833038F444E050E0A40EB51E5FE327
:102DE00059830FC0933631F0933779F0933509F05A
:102DF00056C020C0F5018081898342E050E0A40ED6
:102E0000B51E610101E010E012C0F501C080D18063
:102E1000F6FC03C06FEF7FEF02C0692D70E042E067
:102E200050E0A40EB51EC6010E944F188C015FE74A
:102E3000F52214C0F501C080D180F6FC03C06FEF0D
:102E40007FEF02C0692D70E042E050E0A40EB51E95
:102E5000C6010E9444188C0150E8F52AF3FE07C011
:102E60001AC080E290E0B3010E946A18EA948E2DA5
:102E700090E008171907A8F30EC0F601F7FC85913A
:102E8000F7FE81916F0190E0B3010E946A18E11092
:102E9000EA94015010400115110579F7EAC0943603
:102EA00011F0993669F5F7FE08C0F50120813181EE
:102EB0004281538184E090E00AC0F50180819181D4
:102EC0009C01442737FD4095542F82E090E0A80EE6
:102ED000B91E9FE6F92257FF09C0509540953095DD
:102EE00021953F4F4F4F5F4FE0E8FE2ACA01B901DD
:102EF000A1012AE030E00E949618D82ED21840C0D6
:102F0000953729F41F2D1F7E2AE030E01DC01F2DAC
:102F1000197F9F3661F0903720F4983509F0ACC0E6
:102F20000FC0903739F0983709F0A6C004C028E0E8
:102F300030E00AC0106114FD146020E130E004C0EC
:102F400014FD166020E132E017FF08C0F501608132
:102F500071818281938144E050E008C0F501808155
:102F60009181BC0180E090E042E050E0A40EB51EEB
:102F7000A1010E949618D82ED2188FE7F82EF122C0
:102F8000F6FE0BC05EEFF522D91438F4F4FE07C04C
:102F9000F2FC05C08FEEF82202C01D2D01C0192DD4
:102FA000F4FE0DC0FE01ED0DF11D8081803319F49A
:102FB00099EEF92208C01F5FF2FE05C003C08F2DF5
:102FC000867809F01F5F0F2DF3FC14C0F0FE0FC0D0
:102FD0001E1510F09D2C0BC09D2C9E0C911A1E2DC1
:102FE00006C080E290E0B3010E946A181F5F1E15C0
:102FF000C0F304C01E1510F4E11A01C0EE2404FF52
:103000000FC080E390E0B3010E946A1802FF1DC068
:1030100001FD03C088E790E00EC088E590E00BC09A
:10302000802F867891F001FF02C08BE201C080E220
:10303000F7FC8DE290E0B3010E946A1806C080E3BD
:1030400090E0B3010E946A189A94D914C0F3DA94FC
:10305000F101ED0DF11D808190E0B3010E946A182D
:10306000DD20A9F706C080E290E0B3010E946A1853
:10307000EA94EE20C1F743CEF30166817781CB015C
:103080002B96E2E10C949793FC01059061507040FF
:103090000110D8F7809590958E0F9F1F0895FC0121
:1030A0006150704001900110D8F7809590958E0F77
:1030B0009F1F0895DC01FC01672F71917723E1F7D1
:1030C000329704C07C916D9370836291AE17BF07F5
:1030D000C8F308950F931F93CF93DF938C01EB01F7
:1030E0008B8181FF1BC082FF0DC02E813F818C81AF
:1030F0009D812817390764F4E881F9810193F983E8
:10310000E88306C0E885F985802F1995892B31F46D
:103110008E819F8101969F838E8302C00FEF1FEFE8
:10312000C801DF91CF911F910F910895FA01AA274D
:10313000283051F1203181F1E8946F936E7F6E5FFA
:103140007F4F8F4F9F4FAF4FB1E03ED0B4E03CD0A8
:10315000670F781F891F9A1FA11D680F791F8A1F8B
:10316000911DA11D6A0F711D811D911DA11D20D0F2
:1031700009F468943F912AE0269F11243019305DAC
:103180003193DEF6CF010895462F4770405D41939D
:10319000B3E00FD0C9F7F6CF462F4F70405D4A33EA
:1031A00018F0495D31FD4052419302D0A9F7EACFB2
:1031B000B4E0A6959795879577956795BA95C9F7E1
:1031C00000976105710508959B01AC010A2E0694D4
:1031D0005795479537952795BA95C9F7620F731F8D
:1031E000841F951FA01D08958EE480939D078FE294
:1031F00080939E0781E480939F071092A00710920E
:10320000A70785E08093A80720E031E742E050E07F
:103210002093A9073093AA074093AB075093AC07BC
:1032200080E89EEDAFE0B0E08093AD079093AE07ED
:10323000A093AF07B093B0078CE08093B1078EE006
:103240008093B20786E08093B3078EE18093B40742
:1032500089E090E0A0E0B0E080931808909319080E
:10326000A0931A08B0931B088AE090E0A0E0B0E0B9
:1032700080931C0890931D08A0931E08B0931F080C
:103280002093B6073093B7074093B8075093B90718
:1032900084EF98EAA3E0B0E08093BA079093BB076D
:1032A000A093BC07B093BD0782EE9AE1A5E0B0E021
:1032B0008093BE079093BF07A093C007B093C10748
:1032C00083EC9AE4A6E0B0E08093C2079093C30732
:1032D000A093C407B093C50787EC91EDA7E0B0E0D9
:1032E0008093C6079093C707A093C807B093C907F8
:1032F0008093CA079093CB07A093CC07B093CD07D8
:1033000081E090E0909307088093060885E090E0C4
:10331000909309088093080810920B0810920A08ED
:1033200084E090E090930D0880930C0883E090E097
:1033300090930F0880930E0882E090E0909311081C
:10334000809310088AEE8093120882E2809313081B
:103350008AEF8093140880EF809315088CED80939A
:10336000160884E08093170808954F925F926F9239
:103370007F928F929F92AF92BF92CF92DF92EF9205
:10338000FF920F931F93CF93DF93AC01EB0183E880
:1033900090E0489FF001499FF00D589FF00D1124D7
:1033A000E356F84F628582E390E0C89F7001C99FA1
:1033B000F00CD89FF00C112485E39AE0E80EF91E7A
:1033C000F70120E030E08081681709F4D9012F5F10
:1033D0003F4F31962A303105B1F783E690E0489FA0
:1033E000F001499FF00D589FF00D1124E357F34F62
:1033F0004285538564857585FD01EE0FFF1FEE0F35
:10340000FF1F82E390E0C89F9001C99F300DD89FB5
:10341000300D1124E20FF31FEB5CF54F828593858D
:10342000A485B585481759076A077B0708F058C077
:1034300042875387648775879FE3A92E9AE0B92E48
:10344000A20EB31E00E010E0CC24DD24490139C0F7
:10345000D5014D915D916D917C914080518062804C
:1034600073804416550666067706A8F4D7012C919A
:10347000D5014D925D926D927C9213978881D70110
:103480008C93CA01AA2797FDA095BA2F80839183B8
:10349000A283B38328830F5F1F4F349621960A308F
:1034A0001105B4F20894C11CD11C84E090E0A80E70
:1034B000B91E0894E11CF11C86019AE0C916D104DA
:1034C00079F0F801EE0FFF1FEE0FFF1FE80DF91D59
:1034D000E15CF54FE801C80DD91DCB5CD54FDFCFBE
:1034E000DF91CF911F910F91FF90EF90DF90CF90E0
:1034F000BF90AF909F908F907F906F905F904F9014
:103500000895CF92DF92EF92FF920F931F93813035
:103510009105E1F56F5F7F4F09F047C08CEB96E0B6
:103520006CE046E250E027E230E008E210E079E2A9
:10353000E72EF12CCC24DD240E9442828DEE96E011
:1035400065E349E00E94D18C8BEF96E06AE04BE0A6
:103550002CE00E94D74B86E097E066E045E024E04F
:1035600003E032E0E32E0E940D84609155057091D6
:103570005605409157055091580589E597E000E0C0
:103580001BE420E030E00E9426550FC0892B69F42F
:103590006F5F7F4F51F489EF95E090935A078093C6
:1035A000590789E597E00E943D511F910F91FF90C7
:1035B000EF90DF90CF90089580E090E06FEF7FEF85
:1035C0000E94811A089581E090E06FEF7FEF0E94E2
:1035D000811A0895EF92FF920F931F93CF93DF9379
:1035E0007C018B01C0E0D0E00AC081EA90E1B90122
:1035F0000E94E14DF801EC0FFD1F808321969E0192
:103600002E0D3F1DC338D10581F783E890E0DF918F
:10361000CF911F910F91FF90EF9008950F931F93FB
:10362000CF93DF93082F80915C0590915D05892BE6
:10363000B9F400939A05E02FF0E0E75AFA4F808141
:1036400060E00E94E78EC9E5D5E010E0101721F098
:10365000888161E00E94E78E1F5F21961330B1F7E9
:10366000DF91CF911F910F910895EF92FF920F93E9
:103670001F93CF93DF937C018B01C0E0D0E00AC0A1
:10368000F801EC0FFD1F81EA90E1B90140810E9431
:10369000E84D21969E012E0D3F1DC338D10581F7BF
:1036A00083E890E0DF91CF911F910F91FF90EF9011
:1036B0000895EF92FF920F931F93CF93DF93EC0146
:1036C00083E690E0C89FF001C99FF00DD89FF00DF0
:1036D0001124E357F34FE284F3840485158587E8CA
:1036E00090E0C89FF001C99FF00DD89FF00D112404
:1036F000E85EF74F80819181A281B381E816F906D7
:103700000A071B0720F4E082F1820283138385E815
:1037100090E0C89FF001C99FF00DD89FF00D1124D3
:10372000E65FF74F8081918101969183808383E8E2
:1037300090E0C89FB001C99F700DD89F700D1124F3
:103740009B012356384F27593F4FD901CD93DC9326
:103750002956304083E690E0C89FA001C99F500DD4
:10376000D89F500D1124FA01E357F34F8081D901FE
:1037700057968C935797818156968C935697E05A1B
:10378000FF4F8081E056F0401B968C931B971C9650
:10379000ED92FD920D931C931F9786819781A085D2
:1037A000B185F901808B918BA28BB38B8091690DD0
:1037B000808F4556534FFB01EA54F84F20E030E02C
:1037C000DA01ED90FD900D911D91AD01E192F19224
:1037D000019311932F5F3F4F2431310589F783E81F
:1037E00090E0C89FD001C99FB00DD89FB00D1124A3
:1037F000A356B84F80918A0D54968C93549780911C
:103800008C0D55968C9355971A96EC911A97F0E07B
:10381000EE0FFF1FEE59FA4F80819181BD010E948A
:10382000351BDF91CF911F910F91FF90EF9008957D
:10383000EF92FF920F931F93DF93CF93CDB7DEB735
:1038400065970FB6F894DEBF0FBECDBF7B018C012C
:1038500020E63AEE40E050E00E943893DA01C901D8
:10386000BE016F5F7F4F4AE050E00E943116C801F1
:10387000B70128EE33E040E050E00E943893CA01DF
:10388000B9012CE330E040E050E00E943893DC01C5
:10389000CB01BE016B5F7F4F4AE050E00E943116C2
:1038A000C801B70120E63AEE40E050E00E943893AC
:1038B00028EE33E040E050E00E943893DC01CB0179
:1038C000BE01675F7F4F4AE050E00E9431168A8157
:1038D0009981882319F09D878E8703C080E38D87A7
:1038E0009E878AE38F878E819D81882319F0988B2C
:1038F000898B03C080E3888B998B8AE38A8B8A85C6
:103900009985882319F09B8B8C8B03C080E38B8B6C
:103910009C8B1D8A20E030E0AE01435F5F4FF901D0
:10392000E458F24FDA01A20FB31F8C9180832F5F0E
:103930003F4F2B30310599F765960FB6F894DEBFEF
:103940000FBECDBFCF91DF911F910F91FF90EF90F0
:103950000895DF93CF93CDB7DEB760970FB6F89495
:10396000DEBF0FBECDBF8BEF96E00E94EE4C2987E5
:103970003A874B875C876D877E878F87988BDE01C0
:103980001196FE01399688E001900D928150E1F781
:10399000EAE8FDE08D8180938A0D10928B0D8C8179
:1039A00080938C0D13828E819F8190938F0D8093D5
:1039B0008E0D89818093900D17828A818093920D5C
:1039C000118660960FB6F894DEBF0FBECDBFCF91C3
:1039D000DF910895CF93DF938091970C9091980C8D
:1039E000A091990CB0919A0C8093E30D9093E40D03
:1039F000A093E50DB093E60D8091FA0C9091FB0C2D
:103A0000A091FC0CB091FD0C8093E70D9093E80D14
:103A1000A093E90DB093EA0D4091EB0C5091EC0CA2
:103A2000423051058CF080918F0C9091900CA091B8
:103A3000910CB091920C8093C30D9093C40DA09300
:103A4000C50DB093C60D08C01092C30D1092C40DE1
:103A50001092C50D1092C60D20914E0D30914F0D54
:103A6000223031058CF08091F20C9091F30CA091F2
:103A7000F40CB091F50C8093C70D9093C80DA093F2
:103A8000C90DB093CA0D08C01092C70D1092C80D91
:103A90001092C90D1092CA0D8091930C9091940CC4
:103AA000A091950CB091960C8093D30D9093D40D6A
:103AB000A093D50DB093D60D8091F60C9091F70C94
:103AC000A091F80CB091F90C8093D70D9093D80D7C
:103AD000A093D90DB093DA0D5093F40D4093F30DEC
:103AE0003093F60D2093F50D8091ED0C9091EE0C36
:103AF000009721F48091500D9091510D9093F80D05
:103B00008093F70D8091AF089091B008A091B10813
:103B1000B091B2088093EB0D9093EC0DA093ED0D56
:103B2000B093EE0D8091320990913309A091340940
:103B3000B09135098093EF0D9093F00DA093F10DA6
:103B4000B093F20DE091AE08F0E0EE0FFF1FEE0F24
:103B5000FF1FED55F74F818D928DA38DB48D80930E
:103B6000CB0D9093CC0DA093CD0DB093CE0DE091E5
:103B70003109F0E0EE0FFF1FEE0FFF1FE15CF64F83
:103B800080819181A281B3818093CF0D9093D00DDC
:103B9000A093D10DB093D20D8091B3089091B40849
:103BA000A091B508B091B6088093DB0D9093DC0D21
:103BB000A093DD0DB093DE0D809136099091370909
:103BC000A0913809B09139098093DF0D9093E00DF1
:103BD000A093E10DB093E20DEDE9F7E0CBE9DDE074
:103BE000A3EAB8E080818883ED57FF4F80818A8700
:103BF0008C918C8BAD57BF4F8C918E8FE258F040DB
:103C00002196A258B04087E0E73AF80759F78FE4C9
:103C100097E00E94F44DDF91CF9108958091540573
:103C2000813019F0823071F407C08CEB96E06CE9BA
:103C300072E10E94246308958CEB96E06CE972E1D6
:103C40000E942463089580915405813019F08230D8
:103C500071F407C08CEB96E06CE972E10E9424637A
:103C600008958CEB96E064E177E10E942463089567
:103C70008CEB96E060E040E020E00E94715E0895E9
:103C80008CEB96E060E040E020E00E948A5E0895C0
:103C90008CEB96E063E843E823E80E948A5E08958F
:103CA0008CEB96E06FEF4FEF2FEF0E948A5E089546
:103CB0000F931F930CEB16E0C80160E040E020E09A
:103CC0000E94A25EC8016FEF4FEF2FEF0E948A5E45
:103CD0001F910F9108950F931F930E94581E8CEB14
:103CE00096E060E072E04EE057E224E330E000E06E
:103CF00010E00E9416658091760D9091770D181650
:103D00001906ACF40197FC01E459F24F108290932C
:103D1000770D8093760D0E940E1E8CEB96E06CE67C
:103D20007DE04EE057E224E330E00E9416651F91EB
:103D30000F9108950F931F93282F8091760D9091E6
:103D4000770D88309105ECF4FC01E459F24F2083A3
:103D50000196FC01E459F24F10829093770D809305
:103D6000760D0E940E1E0E94581E8CEB96E06CE6AB
:103D70007DE04EE057E224E330E000E010E00E94F6
:103D800016651F910F9108950F931F930CEB16E08A
:103D9000C80160E040E020E00E94A25EC8016FEF31
:103DA0004FEF2FEF0E948A5E1F910F9108950F939E
:103DB0001F930CEB16E0C80160E040E020E00E9499
:103DC000715E0E94381E0E940E1E0E94C41EC80111
:103DD0006BED75E04EE057E220E030E000E010E0EF
:103DE0000E9416651F910F910895AF92BF92CF92D6
:103DF000DF92EF92FF920F931F93DF93CF93CDB794
:103E0000DEB7A5970FB6F894DEBF0FBECDBF0E94F8
:103E1000D71E0E94231E0E94581E809187079091F2
:103E2000880762E070E00E9425939B018CEB96E08E
:103E30006AE072E04EE057E200E010E00E94166592
:103E40008091BD0990E0BE016F5F7F4F4AE050E076
:103E50000E9431168091BE0990E0BE016B5F7F4FDA
:103E60004AE050E00E9431168A819981882319F036
:103E70009B8F8C8F03C080E38B8F9C8F8FE28D8F05
:103E80008E819D81882319F09E8F8F8F03C080E3E0
:103E90008E8F9F8F8FE288A382E389A310E31AA3FA
:103EA00081E38BA384E38CA31DA28091BF0990E0E2
:103EB000BE01675F7F4F4AE050E00E94311680915B
:103EC000C00990E0BE01635F7F4F4AE050E00E946E
:103ED00031168A859985882319F09D8B8E8B02C0B7
:103EE0001D8B9E8B8AE38F8B8E859D85882319F091
:103EF000988F898F03C080E3888F998F1A8E89E508
:103F000097E068E771E04AE550E02AE731E001E038
:103F10000E946854809187079091880762E070E062
:103F20000E9425939B018CEB96E063E172E04EE0EA
:103F300057E200E010E00E94166589E597E063E42F
:103F40000E94655389E597E063E50E94A65389E5E1
:103F500097E061EA75E00E94B64B89E597E061E081
:103F60000E94775389E597E062E50E94655389E5F1
:103F700097E063E50E94A65389E597E0BE01655E80
:103F80007F4F0E94B64B89E597E0BE016B5E7F4F85
:103F90000E94B64B89E597E061E00E94775389E57E
:103FA00097E063E40E94655389E597E06CE40E9422
:103FB000A65389E597E069EA79E00E94B64B89E566
:103FC00097E063E50E94A6538091120A9091130A2C
:103FD000892B29F489E597E065EB75E004C089E554
:103FE00097E06EEB75E00E94B64B8091C109882383
:103FF00029F489E597E06CE172E00BC0813029F487
:1040000089E597E067E272E004C089E597E061E343
:1040100072E00E94B64B89E597E06CE40E9465531C
:10402000809187079091880762E070E00E94259355
:104030009B018CEB96E063E172E04EE057E200E01A
:1040400010E00E9416658091B40990E08C01000F89
:10405000111F000F111F0E53164FEE24FF246C0189
:1040600031E1A32EB12CAC0EBD1E25C0B5014AE036
:1040700050E00E94311689E597E06DE372E00E94FE
:10408000B34B89E597E069890E94CA4A89E597E0C0
:1040900062E472E00E94B34BF80160817181828119
:1040A00093810E94181C89E597E06CE77DE00E94EF
:1040B000B64B04501040C6018E199F090894E11CAC
:1040C000F11CF9E0023C1F0789F689E597E061E001
:1040D0000E94775389E597E063E40E94655389E580
:1040E00097E066E472E00E94B64B6091B909709166
:1040F000BA098091BB099091BC090E94181C89E5FE
:1041000097E06CE77DE00E94B64B89E597E061E0BF
:104110000E94775389E597E061E572E00E94B64B13
:104120006091B5097091B6098091B7099091B8096D
:104130000E94181C89E597E06CE77DE00E94B64B71
:1041400089E597E061E00E94775389E597E06AE5A9
:1041500072E00E94B64B8091120A9091130A880F68
:10416000991F880F991F080F191F0E591F4FF8012B
:1041700060817181828193810E94181C89E597E09A
:104180006CE77DE00E94B64B89E597E061E00E9414
:10419000775389E597E067EC75E00E94B64B89E5B7
:1041A00097E065E00E947753A5960FB6F894DEBFBE
:1041B0000FBECDBFCF91DF911F910F91FF90EF9078
:1041C000DF90CF90BF90AF9008950F931F930E9400
:1041D000D71E0E94231E0E94581E20915E0530E0CB
:1041E000220F331F8CEB96E068E672E04EE057E258
:1041F00000E010E00E9416651F910F910895CF9284
:10420000DF92EF92FF920F931F930E94D71E20918F
:104210006005809187079091880764E170E00E94B3
:1042200025937B01E20EF11C822F63E00E94F8923D
:10423000E80EF11C82E080936A0D0E94C41E0E9469
:104240000E1E6CEBC62E66E0D62EC60163E772E04A
:104250004EE057E2970100E010E00E9416650E94D0
:10426000231E80915E05E80EF11CC60167E872E02E
:104270004EE057E297010E9416651F910F91FF9043
:10428000EF90DF90CF9008956F927F928F929F92E0
:10429000AF92BF92CF92EF92FF920F931F93CF9363
:1042A000DF9310926A0D8091A707882329F48091EB
:1042B0002A08882309F414C30E94D71E8091870717
:1042C000909188076BE170E00E9425933B018091FB
:1042D0006005680E711C0E94401E6AE070E080E07C
:1042E00090E00E946F8D20916005822F63E00E9414
:1042F000F8925301A80EB11CA20EB11C20918507A3
:1043000030918607C90164E170E00E942593EB01BA
:10431000C90162E070E00E9425934B018C0E9D1E46
:104320000E940E1E0E94C41E2091870730918807AC
:104330002150304080915E05281B31098091600535
:10434000281B31098CEB96E06EE872E0AE0100E0CC
:1043500010E00E9416652091870730918807215050
:10436000304080916005281B310980915E05281B33
:1043700031098CEB96E06EE872E0A4010E941665AC
:104380000E94581E0E94231E8091650D882309F407
:10439000FCC02091EB0C3091EC0C8091ED0C9091D5
:1043A000EE0C821793070CF454C08091A707882362
:1043B00009F478C0A901662757FD6095762F009112
:1043C0008707109188070150104080915E05081BF7
:1043D00011098CEB96E09E01EE24FF24E0E2CE2E44
:1043E0000E94E56580915E0590E0AC01440F551F89
:1043F0004C0F5D1F20918707309188072150304076
:10440000281B390B8CEB96E06AE972E000E010E0C3
:104410000E94166580915E0590E04091ED0C5091F0
:10442000EE0C662757FD6095762F9C01220F331FF7
:10443000220F331F2C0F3D1F009187071091880713
:1044400001501040081B190B8CEB96E00E94E565AB
:1044500029C020915F0530E0B3E0220F331FBA95E9
:10446000E1F780918F0790919007821B930B62E098
:1044700070E00E94259370939407609393072091B6
:104480008707309188072150304080915E05281BB6
:1044900031098CEB96E06DE972E0AE0100E010E0CE
:1044A0000E94166520914E0D30914F0D8091500D58
:1044B0009091510D821793070CF454C080912A08F3
:1044C000882309F462C0A901662757FD6095762FFD
:1044D00000918707109188070150104080915E0578
:1044E000081B11098CEB96E09401EE24FF24A0E256
:1044F000CA2E0E94E56580915E0590E0AC01440FF4
:10450000551F480D591D209187073091880721506C
:104510003040281B390B8CEB96E06AE972E000E032
:1045200010E00E94166580915E0590E04091500D6C
:104530005091510D662757FD6095762F9C01220FF3
:10454000331F220F331F280D391D0091870710914B
:10455000880701501040081B190B8CEB96E00E9455
:10456000E56513C0209187073091880721503040BE
:1045700080915E05281B31098CEB96E06DE972E0B5
:10458000A40100E010E00E9416650E94C41E0E9473
:104590000E1E8CEB96E065EB75E0AE01930100E03A
:1045A00010E00E9416650E94581E0E94231E8CEB8C
:1045B00096E06DE977E0AE0195010E9416650E94D4
:1045C000C41E0E940E1E8CEB96E06EEB75E0A401FB
:1045D00093010E9416650E94581E0E94231E8CEBB8
:1045E00096E060E278E0A40195010E9416650E94C1
:1045F000C41E0E940E1E80915E059501280F311D7C
:104600008CEB96E066EA72E0AE010E94166580913E
:10461000EB0C9091EC0C029714F18091A707882382
:10462000F1F00E94581E0E94231E60918F0C709121
:10463000900C8091910C9091920C0E94181C80918A
:10464000600520915E0530E0280F311D2A0D3B1DCD
:104650008CEB96E06CE77DE0AE010E9416650E944F
:10466000C41E0E940E1E80915E059501280F311D0B
:104670008CEB96E066EA72E0A40100E010E00E9494
:10468000166580914E0D90914F0D029714F1809117
:104690002A088823F1F00E94581E0E94231E609170
:1046A000F20C7091F30C8091F40C9091F50C0E9437
:1046B000181C8091600520915E0530E0280F311DA7
:1046C0002A0D3B1D8CEB96E06CE77DE0A4010E9477
:1046D00016650E94C41E0E940E1E20915E0530E0E9
:1046E000220F331F80916005280F311D2A0D3B1DBD
:1046F0008CEB96E06BEA72E0AE0100E010E00E9405
:1047000016658091A707882301F10E94581E0E9418
:10471000231E6091970C7091980C8091990C909148
:104720009A0C0E94181C80915E052091600530E073
:10473000280F311D220F331F2A0D3B1D8CEB96E0F5
:104740006CE77DE0AE010E9416650E94C41E0E94C7
:104750000E1E20915E0530E0220F331F8091600510
:10476000280F311D2A0D3B1D8CEB96E06BEA72E0A1
:10477000A40100E010E00E94166580912A088823B9
:1047800001F10E94581E0E94231E6091FA0C709144
:10479000FB0C8091FC0C9091FD0C0E94181C8091E8
:1047A0005E052091600530E0280F311D220F331F78
:1047B0002A0D3B1D8CEB96E06CE77DE0A4010E9486
:1047C00016650E94C41E0E940E1E20915E0583E0A5
:1047D000289F900111248091600590E0880F991F17
:1047E000280F391F2A0D3B1D8CEB96E060EB72E021
:1047F000AE0100E010E00E9416658091A7078823B3
:1048000019F10E94581E0E94231E6091930C709112
:10481000940C8091950C9091960C0E94181C2091FC
:104820005E058091600590E0820F911D9C01220F32
:10483000331F280F391F2A0D3B1D8CEB96E06CE7C8
:104840007DE0AE010E9416650E94C41E0E940E1EED
:1048500020915E0583E0289F9001112480916005DE
:1048600090E0880F991F280F391F2A0D3B1D8CEBF4
:1048700096E060EB72E0A40100E010E00E94166593
:1048800080912A08882321F10E94581E0E94231E2D
:104890006091F60C7091F70C8091F80C9091F90CE6
:1048A0000E94181C80915E052091600530E0280F61
:1048B000311DC901880F991F820F931FA80EB91EC1
:1048C0008CEB96E06CE77DE0A40195010E941665F3
:1048D0008091A707882331F480912A08882311F456
:1048E0000E94E520DF91CF911F910F91FF90EF90F3
:1048F000CF90BF90AF909F908F907F906F900895D2
:104900000E943B8D2091860D3091870D4091880D3E
:104910005091890D621B730B840B950B615D774081
:104920008040904010F00E944421089510929B0511
:1049300010929A0D82E00E940E1B81E08093650D1B
:1049400080919C0590919D059093EE0C8093ED0CC9
:104950009093510D8093500D80915C0590915D0571
:10496000892B11F40E9444210E94EA1C0895ADE9AC
:10497000B7E0E3EAF8E083E801900D928150E1F7B7
:10498000A0E2B8E0E6E2F9E083E801900D92815000
:10499000E1F781E080937A0D80937B0D0E9496244D
:1049A00008950F931F930CEB16E0C8016FEF4FEFC4
:1049B0002FEF0E94A25EC80160E040E020E00E946C
:1049C0008A5E1F910F910895EF92FF920F931F93AC
:1049D0000E94381E0E94C41E0E940E1EBCEBEB2ECD
:1049E000B6E0FB2E809187079091880762E070E027
:1049F0000E9425939B01C70166EB72E04EE057E2EF
:104A000000E010E00E94166540915E0580918707E6
:104A10009091880762E070E00E9425939B01240F2B
:104A2000311DC70166EC72E04EE057E20E94166548
:104A300089E080936A0D0E94401E6AE070E080E089
:104A400090E00E946F8D0E94231E0E94501E409194
:104A50008B0750918C0720918F0730919007009120
:104A600087071091880701501040C70160E070E08F
:104A70000E94595F6091890770918A0740918B0766
:104A800050918C0720918507309186072150304046
:104A9000009187071091880701501040C7010E94BC
:104AA000595FE0918907F0918A0720915F0530E016
:104AB00080918507909186078E1B9F0B8901000FBF
:104AC000111F200F311F821B930B62E070E00E94C8
:104AD0002593E60FF71FF0939207E09391078091DB
:104AE0008F0790919007801B910B62E070E00E940D
:104AF000259370939407609393070E94D12440916B
:104B000093075091940720918D0730918E07C7012C
:104B100069ED72E000E010E00E9416654091910797
:104B20005091920720918D0730918E07C7016CED4F
:104B300072E00E9416651F910F91FF90EF9008950B
:104B40002F923F924F925F926F927F928F929F929D
:104B5000AF92BF92CF92DF92EF92FF920F931F938B
:104B6000DF93CF93CDB7DEB766970FB6F894DEBF6D
:104B70000FBECDBF87E080936A0D0E94D71E809143
:104B800085079091860764E470E00E9425939B015D
:104B9000220F331FAB01440F551F440F551F460F03
:104BA000571F5C874B87420F531F5A874987809155
:104BB00087079091880763E070E00E9425936B015E
:104BC000C21AD30A2B843C842C0C3D1C4101820E5A
:104BD000931E4B845C84480C591C5201A20EB31ED8
:104BE0008B859C858A0D9B1D98878F8380915E05A0
:104BF000EB85FC85E81BF109CF0162E070E00E94C3
:104C000025939B012C0D3D1D3E832D83A401460F52
:104C1000571F5C834B83F501E60FF71FFA83E98387
:104C200080915F05282F30E03A8B298B8B859C85FE
:104C3000821B930B62E070E00E9425936B8B7C8B50
:104C400069847A84E3E0660C771CEA95E1F749858C
:104C50005A85641A750A440F551F89859A85480F2D
:104C6000591F440F551F588B4F870E94501E10929A
:104C700042071092410740C0E985FA85E89F70011C
:104C8000E99FF00CF89FF00C11242B853C852E0D2C
:104C90003F1D3E8B2D8B80918507909186072817AD
:104CA00039072CF0AC01415050405E8B4D8B8CEBA2
:104CB00096E0B701A6012D893E8981010E94595FC6
:104CC0008CEB96E0B701A4012D893E8982010E94F8
:104CD000595F8CEB96E0B701A5012D893E890F81C4
:104CE00018850E94595F8091410790914207019673
:104CF000909342078093410780914107909142072A
:104D00008A3091050CF4B8CF2B853C85260D371DD4
:104D10008CEB96E06F857889A5010F8118850E943C
:104D2000595F0E94501E60919507709196074091BF
:104D30008B0750918C07209197073091980700912D
:104D4000870710918807015010408CEB96E00E9475
:104D5000595F0E94D12420918D0730918E078CEBF2
:104D600096E060EE72E04EE057E200E010E00E9454
:104D700016650E94D1240E94231E8CEB96E067EEFC
:104D800072E04B895C892D813E810E9416658B897A
:104D90009C89E985FA858E0F9F1F9E8B8D8B8CEBEE
:104DA00096E069EE72E04D895E892D813E810E9418
:104DB0001665A984BA84AA0CBB1C2B883C882A0CD3
:104DC0003B1C8CEB96E06BEE72E0A1012D813E81E5
:104DD0000E94166529853A85A20EB31E4B895C890F
:104DE000A40EB51E8CEB96E06DEE72E0A5012D8150
:104DF0003E810E941665C984DA84CC0CDD1CCC0C83
:104E0000DD1C4B885C884C0C5D1C8CEB96E06FEED7
:104E100072E0A2012D813E810E94166589859A85E6
:104E2000C80ED91EEB89FC89CE0EDF1E8CEB96E0F6
:104E300061EF72E0A6012D813E810E9416652F85EB
:104E400038894B895C89240F351F3E872D878CEB71
:104E500096E063EF72E0A9012D813E810E94166504
:104E600043018B899C89880E991E8CEB96E065EF37
:104E700072E0A4012D813E810E941665E984FA84C6
:104E800093E0EE0CFF1C9A95E1F76B887C886E0C22
:104E90007F1C8CEB96E067EF72E0A3012D813E81D1
:104EA0000E941665E985FA85EE0EFF1E2B893C8966
:104EB000E20EF31E8CEB96E069EF72E0A7012D8104
:104EC0003E810E9416658CEB96E06BEF72E04B8999
:104ED0005C892B813C810E9416658CEB96E06DEF1E
:104EE00072E04D895E892B813C810E9416658CEBB6
:104EF00096E06FEF72E0A1012B813C810E94166564
:104F00008CEB96E061E073E0A5012B813C810E946F
:104F100016658CEB96E063E073E0A2012B813C8187
:104F20000E9416658CEB96E065E073E0A6012B818C
:104F30003C810E9416658CEB96E067E073E04D853E
:104F40005E852B813C810E9416658CEB96E069E0C2
:104F500073E0A4012B813C810E9416658CEB96E0E6
:104F60006BE073E0A3012B813C810E9416658CEB02
:104F700096E06DE073E0A7012B813C810E941665ED
:104F80008CEB96E06FE073E04B895C8929813A8174
:104F90000E9416658CEB96E061E173E04D895E89B5
:104FA00029813A810E9416658CEB96E063E173E0FB
:104FB000A10129813A810E9416658CEB96E065E19A
:104FC00073E0A50129813A810E9416658CEB96E079
:104FD00067E173E0A20129813A810E9416658CEB9A
:104FE00096E069E173E0A60129813A810E94166585
:104FF0008CEB96E06BE173E0A30129813A810E947A
:1050000016658CEB96E06BE173E0A70129813A818C
:105010000E94166529893A89220F331F49895A89C6
:10502000240F351F8B859C85821B930BE985FA85A0
:105030008E0F9F1F62E070E00E942593AB012F85C9
:105040003889420F531F8CEB96E06DE173E02981A4
:105050003A810E9416650E94581E6AE070E080E066
:1050600090E00E946F8D0E940E1E1092770D10929C
:10507000760D10926C0D8CEB96E06CE67DE04EE0C8
:1050800057E224E330E00E94166566960FB6F89466
:10509000DEBF0FBECDBFCF91DF911F910F91FF906B
:1050A000EF90DF90CF90BF90AF909F908F907F90C8
:1050B0006F905F904F903F902F9008952F923F9266
:1050C0004F925F926F927F928F929F92AF92BF9218
:1050D000CF92DF92EF92FF920F931F93CF93DF93C4
:1050E0000E94D71E0E94501E0E94231E60919507A9
:1050F0007091960740918B0750918C0720919707EC
:10510000309198070091870710918807015010404F
:105110008CEB96E00E94595F0E94D12420918D076C
:1051200030918E078CEB96E06FE173E04EE057E232
:1051300000E010E00E94166585E080936A0D4091C2
:105140008707E0918807842F9E2F64E170E00E941A
:1051500025936B0180916005C80ED11C242F3E2F32
:10516000220F331FC90153E0880F991F5A95E1F7A9
:10517000821B930B64E670E00E9425937B012091D3
:10518000850730918607C90164E170E00E9425938C
:10519000EB01842F9E2F6AE070E00E9425935B0153
:1051A000AE0CBF1CC9016CEE7FEF0E9425934B0132
:1051B000820E931E80917A0D882309F06CC081E0E5
:1051C00090E0909344078093430727014C0C5D1CAB
:1051D00035016C0C7D1C1501240C351C55C00E943A
:1051E000501E8091430790914407A89E8001A99E7C
:1051F000100DB89E100D1124A8014C0D5D1D2091BD
:105200008F0730919007040D151D8CEB96E0BE01C1
:105210000E94595F0E94D1240E940E1E80918F0728
:10522000909190078C1B9D0B2091610546E0249F77
:1052300090011124821B930B62E070E00E94259381
:10524000FB01EC0FFD1F809160059101281B3109C6
:10525000C9018619970962E070E00E9425939B01BD
:10526000260D371D8CEB96E066E273E0AF0100E09F
:1052700010E00E94166580914307909144070196C3
:10528000909344078093430780914307909144078C
:1052900002970CF4A4CF80917B0D882309F06CC099
:1052A00081E090E09093440780934307EC0CFD1C51
:1052B000E501CC0DDD1D96E0592E35016E0C7F1CED
:1052C00054C00E94501E8091430790914407A89EAD
:1052D0008001A99E100DB89E100D112460918907C0
:1052E00070918A07A8014C0D5D1D0E0D1F1D8CEBE2
:1052F00096E094010E94595F0E94D1240E940E1EE4
:10530000E0918907F0918A07C4018E1B9F0B2091C1
:105310006105259D90011124821B930B62E070E0D2
:105320000E942593E60FF71F809160059301281BCB
:105330003109C9018C1B9D0B62E070E00E9425932E
:105340009B012C0F3D1F8CEB96E06DE273E0AF01EB
:1053500000E010E00E941665809143079091440799
:10536000019690934407809343078091430790915F
:10537000440702970CF4A5CF0E94C41E0E94231E6E
:105380008CEB96E064E373E04EE057E2960100E0B8
:1053900010E00E9416658CEB96E069EA79E04EE039
:1053A00057E296010E94166580915E059601280FCE
:1053B000311D8CEB96E064E373E04EE057E20E940F
:1053C000166580915E05C80ED11C8CEB96E065E4F5
:1053D00073E04EE057E296010E941665DF91CF918F
:1053E0001F910F91FF90EF90DF90CF90BF90AF9003
:1053F0009F908F907F906F905F904F903F902F90F5
:1054000008952F923F924F925F926F927F928F9268
:105410009F92AF92BF92CF92DF92EF92FF920F9343
:105420001F93CF93DF930E94D71E0E94501E0E94AD
:10543000231E609195077091960740918B075091BC
:105440008C0720919707309198070091870710915A
:105450008807015010408CEB96E00E94595F0E9433
:10546000D12420918D0730918E078CEB96E06FE16F
:1054700073E04EE057E200E010E00E94166584E021
:1054800080936A0D40918707E0918807842F9E2FB3
:1054900064E170E00E9425935B0180916005A80E95
:1054A000B11C242F3E2F220F331FC901A3E0880F08
:1054B000991FAA95E1F7821B930B64E670E00E94A6
:1054C00025933B012091850730918607C90164E14E
:1054D00070E00E942593EB01842F9E2F6AE070E01C
:1054E0000E9425937B01E60CF71CC9016CEE7FEF4F
:1054F0000E9425934B01820E931E80917A0D882382
:1055000009F06CC081E090E09093440780934307DA
:1055100023014A0C5B1C6701CA0CDB1C1701240C1D
:10552000351C55C00E94501E80914307909144073E
:10553000E89E8001E99E100DF89E100D1124A8012F
:105540004A0D5B1D20918F0730919007040D151DAA
:105550008CEB96E0BE010E94595F0E94D1240E940C
:105560000E1E80918F07909190078C1B9D0B2091B0
:10557000610546E0249F90011124821B930B62E099
:1055800070E00E942593FB01EC0FFD1F80916005E8
:105590009101281B3109C9018C199D0962E070E055
:1055A0000E9425939B012C0D3D1D8CEB96E066E23D
:1055B00073E0AF0100E010E00E94166580914307A0
:1055C00090914407019690934407809343078091FC
:1055D00043079091440702970CF4A4CF80917B0D70
:1055E000882309F06DC081E090E090934407809398
:1055F00043076301CA0CDB1CE701CA0DDB1DF6E0A3
:105600003F2E27014C0C5D1C54C00E94501E8091FF
:10561000430790914407E89E8001E99E100DF89E93
:10562000100D11246091890770918A07A8014A0D15
:105630005B1D0C0D1D1D8CEB96E094010E94595FC3
:105640000E94D1240E940E1EE0918907F0918A07E2
:10565000C4018E1B9F0B20916105239D9001112495
:10566000821B930B62E070E00E942593E60FF71F08
:1056700080916005A201481B5109CA018C1B9D0B3A
:1056800062E070E00E9425939B012C0F3D1F8CEB84
:1056900096E06DE273E0AF0100E010E00E94166555
:1056A000809143079091440701969093440780931B
:1056B0004307809143079091440702970CF4A5CFCC
:1056C00080917B0D882309F04CC00E94501EC701B9
:1056D000880F991F6C01CA0CDB1C7301EA0CFB1CC0
:1056E000E80EF91E6091890770918A078CEB96E0AD
:1056F000A601940187010E94595F0E94D1240E9453
:105700000E1E2091890730918A07821A930A809190
:10571000610590E073E0880F991F7A95E1F7A40185
:10572000481B590BCA0162E070E00E942593260FC6
:10573000371FEC18FD0880916005A701481B51092F
:10574000CA0162E070E00E942593C60ED71E8CEB62
:1057500096E06CE473E0A901960100E010E00E947D
:1057600016650E94C41E0E94231E8CEB96E064E323
:1057700073E04EE057E2950100E010E00E941665EC
:105780008CEB96E069EA79E04EE057E295010E94E1
:10579000166580915E059501280F311D8CEB96E012
:1057A00064E373E04EE057E20E94166580915E0567
:1057B000A80EB11C8CEB96E065E473E04EE057E276
:1057C00095010E941665DF91CF911F910F91FF9077
:1057D000EF90DF90CF90BF90AF909F908F907F9091
:1057E0006F905F904F903F902F9008956F927F92AF
:1057F0008F929F92AF92BF92CF92DF92EF92FF92E1
:105800000F931F93CF93DF930E94D71E0E94501EC9
:105810000E94231E609195077091960740918B0717
:1058200050918C0720919707309198070091870736
:1058300010918807015010408CEB96E00E94595F50
:105840000E94D12420918D0730918E078CEB96E039
:105850006FE173E04EE057E200E010E00E94166551
:1058600083E080936A0D40918707E0918807842F39
:105870009E2F64E170E00E942593EB01809160050A
:10588000C80FD11D242F3E2F220F331FC90163E003
:10589000880F991F6A95E1F7821B930B64E670E00D
:1058A0000E9425934B012091850730918607C901FD
:1058B00064E170E00E9425936B01842F9E2F6AE0C3
:1058C00070E00E9425935B01A80CB91CC9016CEE25
:1058D0007FEF0E9425933B01620E731E81E090E0F2
:1058E00090934407809343077401EC0EFD1E24C07F
:1058F0000E94501E8091430790914407A89E80010A
:10590000A99E100DB89E100D1124A8014C0F5D1F0B
:1059100020918F07309190070E0D1F1D8CEB96E0A4
:10592000B6010E94595F8091430790914407019608
:1059300090934407809343078091430790914407D5
:105940000397B4F281E090E090934407809343077B
:105950007401EC0EFD1E24C00E94501E809143076E
:1059600090914407A89E8001A99E100DB89E100D2D
:1059700011246091890770918A07A8014C0F5D1F5F
:105980000E0D1F1D8CEB96E093010E94595F8091D4
:1059900043079091440701969093440780934307EF
:1059A00080914307909144070297B4F28091B30924
:1059B0008130A1F582E090E0909344078093430703
:1059C0007401EC0EFD1E24C00E94501E80914307FE
:1059D00090914407A89E8001A99E100DB89E100DBD
:1059E00011246091890770918A07A8014C0F5D1FEF
:1059F0000E0D1F1D8CEB96E093010E94595F809164
:105A0000430790914407019690934407809343077E
:105A100080914307909144070397B4F20E94D124E8
:105A20000E940E1E9091B3098091A707981721F04C
:105A300080912A08981759F580918F0790919007C7
:105A40008C199D092091610530E053E0220F331F2E
:105A50005A95E1F7821B930B62E070E00E94259358
:105A6000FB01EC0DFD1D8091600595012C0F3D1F84
:105A7000A401481B5109CA0162E070E00E9425930D
:105A8000260F371F8CEB96E065E573E02DC0809103
:105A90009B05882371F180918F07909190078C1955
:105AA0009D092091610530E0220F331F220F331F23
:105AB000821B930B62E070E00E942593FB01EC0DCA
:105AC000FD1D8091600595012C0F3D1FA401481B11
:105AD0005109CA0162E070E00E942593260F371F2A
